:020000040800F2
:10000000980F00200D0200088B1A0008F302000868
:10001000871A000829070008891E00080000000050
:10002000000000000000000000000000ED1A0008C1
:1000300071070008000000007B020008EF1A0008AA
:1000400027020008270200082702000827020008EC
:1000500027020008270200082702000827020008DC
:1000600027020008270200082702000827020008CC
:100070002702000827020008270200082D070008B1
:1000800027020008270200082702000827020008AC
:10009000270200082702000827020008270200089C
:1000A000270200082702000827020008270200088C
:1000B000270200082702000827020008270200087C
:1000C000270200082702000827020008270200086C
:1000D00027020008711E00082702000827020008F6
:1000E000270200082702000827020008270200084C
:1000F000270200082702000827020008270200083C
:10010000270200082702000827020008270200082B
:10011000270200082702000827020008270200081B
:10012000270200082702000827020008270200080B
:1001300000F002F800F05AF80AA090E8000C82449F
:100140008344AAF10107DA4501D100F04FF8AFF27C
:10015000090EBAE80F0013F0010F18BFFB1A43F0A5
:100160000103184718970000389700000A444FF021
:10017000000C10F8013B13F0070408BF10F8014B06
:100180001D1108BF10F8015B641E05D010F8016B4B
:10019000641E01F8016BF9D113F0080F1EBF10F8AF
:1001A000014BAD1C0C1B09D16D1E58BF01F801CBD2
:1001B000FAD505E014F8016B01F8016B6D1EF9D555
:1001C0009142D6D37047000000230024002500266A
:1001D000103A28BF78C1FBD8520728BF30C148BFAA
:1001E0000B6070471FB51FBD10B510BD00F05CFA65
:1001F0001146FFF7F7FF00F090FA00F07AFA03B427
:10020000FFF7F2FF03BC00F081FA000009488047C5
:1002100009480047FEE7FEE7FEE7FEE7FEE7FEE7E8
:10022000FEE7FEE7FEE7FEE704480549054A064B00
:1002300070470000791B0008310100089809002070
:10024000980F0020980B0020980B0020EFF31080EF
:1002500072B6704780F310887047334A1368012BD9
:1002600004D04FF001031360304A1060304A11602F
:1002700030484FF0805101607047EFF3108272B642
:100280002948016891B14FF00001016027480168D9
:1002900029B1EFF3098121E9F00F006801602449D9
:1002A00009680968B1E8F00F81F3098882F31088C2
:1002B0004EF0040E70471E4908601C494FF00000C4
:1002C000086019494FF0010008601B484FF47F0196
:1002D000D0F8002041EA0201016016484FF0805139
:1002E000016016480068006880F3088861B662B64D
:1002F00070471EF0040F0CBFEFF30880EFF3098086
:1003000020E9F00F40F804ED1EF0040F0CBF80F35D
:10031000088880F3098800B504F074FF5DF804EBE9
:100320004EF0040E704700002C0000202400002036
:100330002800002004ED00E020ED00E008ED00E0E2
:1003400040EA010310B59B070FD1042A0DD310C852
:1003500008C9121F9C42F8D020BA19BA884201D9A4
:10036000012010BD4FF0FF3010BD1AB1D30703D0EC
:10037000521C07E0002010BD10F8013B11F8014BA2
:100380001B1B07D110F8013B11F8014B1B1B01D1BE
:10039000921EF1D1184610BD40EA0103024630B565
:1003A0009B0710D14FF0013400E008C208C91D1BA3
:1003B0009D4315EAC41FF8D013F0FF0102F8011B9A
:1003C0000DD01B0AF8E711F8013B002B02F8013BA6
:1003D00005D011F8013B002B02F8013BF3D130BDF1
:1003E00010B5431C02E010F8011B71B18107FAD16E
:1003F0004FF0013202C88C1A8C4314EAC211F9D0B2
:10040000C01A0A0603D0C01E10BDC01A10BD0A04CF
:1004100001D0801E10BD0902FCD0401E10BD40EA74
:10042000010370B59B072ED14FF00136042A2AD361
:1004300008C810C99D1B9D43121F15EAC61517D089
:10044000D8B2E1B2401A50EA056110D198B2A1B217
:10045000401A50EA05410AD123F07F4024F07F4141
:10046000401A50EA052102D1180EA0EB146070BDAD
:10047000A342DBD018BA21BA884201D9012070BD4D
:100480004FF0FF3070BD0AB9002070BD10F8013B7D
:1004900011F8014B63B1A3420AD1521E08D010F8E3
:1004A000013B11F8014B1BB1A34201D1521EEDD10A
:1004B000181B70BD421E12F8013F002BFBD111F832
:1004C000013B002B02F8013BF9D17047032A40F2AF
:1004D000308010F0030C00F0158011F8013BBCF1E6
:1004E000020F624498BF11F801CB00F8013B38BFFE
:1004F00011F8013BA2F1040298BF00F801CB38BF0C
:1005000000F8013B11F0030300F02580083AC0F029
:10051000088051F8043B083A51F804CBA0E80810D1
:10052000F5E7121D5CBF51F8043B40F8043BAFF304
:100530000080D20724BF11F8013B11F801CB48BF5E
:1005400011F8012B24BF00F8013B00F801CB48BF94
:1005500000F8012B704710B5203AC0F00B80B1E8CD
:100560001850203AA0E81850B1E81850A0E81850E8
:10057000BFF4F5AF5FEA027C24BFB1E81850A0E8F1
:10058000185044BF18C918C0BDE810405FEA827C0B
:1005900024BF51F8043B40F8043B08BF7047D20722
:1005A00028BF31F8023B48BF11F8012B28BF20F8C3
:1005B000023B48BF00F8012B70474FF000020429AE
:1005C000C0F0128010F0030C00F01B80CCF1040C82
:1005D000BCF1020F18BF00F8012BA8BF20F8022BB6
:1005E000A1EB0C0100F00DB85FEAC17C24BF00F85C
:1005F000012B00F8012B48BF00F8012B70474FF08A
:10060000000200B5134694469646203922BFA0E862
:100610000C50A0E80C50B1F12001BFF4F7AF09076E
:1006200028BFA0E80C5048BF0CC05DF804EB89005F
:1006300028BF40F8042B08BF704748BF20F8022BA2
:1006400011F0804F18BF00F8012B704710B5044619
:1006500010F0030F08BF11F0030F40F015804FF0AA
:10066000013E121FC0F20E8051F8043BA3EB0E0CAA
:100670002CEA030C1CEACE1C08BF40F8043BF0D067
:10068000A1F1040102F10402521E08DB11F8013B42
:10069000002B00F8013BF7D11146FFF78EFF2046F3
:1006A00010BD704770477047754600F02BF8AE4696
:1006B00005006946534620F00700854618B020B56E
:1006C000FFF7B2FDBDE820404FF000064FF00007F5
:1006D0004FF000084FF0000B21F00701AC46ACE8EA
:1006E000C009ACE8C009ACE8C009ACE8C0098D4657
:1006F000704710B50446AFF300802046BDE81040B7
:10070000FFF77DBD004870473409002001491820DB
:10071000ABBEFEE726000200704710B5FFF796FD5E
:1007200007F0EEFC002010BD00BFFEE710B505F09D
:100730003FF8034800F060F805F05CF810BD0000D9
:10074000C001002030B590F840500124AC40C56B8A
:100750006C60046863604468102C04D10468A26073
:100760000468E16003E00468A1600468E26030BDF1
:1007700070470000014609B9012070470868006809
:1007800020F001000A68106000200A6810600A6802
:1007900050600A6890600A68D060154A0868904204
:1007A0000BD2144A0868801A1422B0FBF2F08000C1
:1007B000086410480838C8630AE00D4A0868801ABF
:1007C0001422B0FBF2F08000086409480838C863BE
:1007D00091F8402001209040CA6B5060002088634F
:1007E00081F8210000BF81F8200000BF00BFC4E7EE
:1007F000080402400800024070B50446E06B05683A
:100800002068066894F8401004208840284000289A
:1008100075D006F004000028FAD02068006800F0C7
:10082000200028B92068006820F0040021680860D2
:10083000D5492068884254D9D349783920688842FC
:1008400001D1042049E0D04964392068884201D1AF
:10085000402042E0CC4950392068884201D100153F
:100860003BE0C9493C392068884202D14FF48040BE
:1008700033E0C54928392068884202D14FF48020EE
:100880002BE0C14914392068884202D14FF480001E
:1008900023E0BD492068884201D1C0041DE0BB4966
:1008A0002068884201D1042017E0B849143120683B
:1008B000884201D1402010E0B449283120688842A4
:1008C00001D1001509E0B1493C312068884202D1CC
:1008D0004FF4804001E04FF48020AC49091F0860CC
:1008E00054E0A94978392068884201D104204AE0BF
:1008F000A54964392068884202D1402043E04CE099
:10090000A14950392068884201D100153BE09E4939
:100910003C392068884202D14FF4804033E09A4944
:1009200028392068884202D14FF480202BE0964974
:1009300014392068884202D14FF4800023E09249A4
:100940002068884201D1C0041DE090492068884297
:1009500001D1042017E08D4914312068884201D16B
:10096000402010E0894928312068884201D10015D3
:1009700009E086493C312068884202D14FF480402A
:1009800001E04FF48020804980394860E06A002807
:1009900002D02046E16A8847F4E094F84010022033
:1009A00088402840002871D006F002000028FAD0C4
:1009B0002068006800F0200040B92068006820F03E
:1009C0000A0021680860012084F821006E4920682F
:1009D000884254D96C4978392068884201D1022074
:1009E00049E0694964392068884201D1202042E009
:1009F000654950392068884201D140153BE0624981
:100A00003C392068884202D14FF4005033E05E49FF
:100A100028392068884202D14FF400302BE05A492F
:100A200014392068884202D14FF4001023E056495F
:100A30002068884201D180041DE054492068884222
:100A400001D1022017E0514914312068884201D1B8
:100A5000202010E04D4928312068884201D14015FE
:100A600009E04A493C312068884202D14FF40050E5
:100A700001E04FF400304549091F086054E0424945
:100A800078392068884202D102204AE057E03E4986
:100A900064392068884201D1202042E03A49503927
:100AA0002068884201D140153BE037493C39206835
:100AB000884202D14FF4005033E03349283920688E
:100AC000884202D14FF400302BE02F4914392068BE
:100AD000884202D14FF4001023E02B49206888425D
:100AE00001D180041DE029492068884201D10220FB
:100AF00017E0264914312068884201D1202010E0F7
:100B0000224928312068884201D1401509E01F4957
:100B10003C312068884202D14FF4005001E04FF48C
:100B2000003019498039486000BF002084F8200057
:100B300000BFA06A30B32046A16A884722E094F83B
:100B40004010082088402840E0B106F00800C8B1F5
:100B50002068006820F00E002168086094F84010BA
:100B600001208840E16B48600120A06384F82100E7
:100B700000BF002084F8200000BF206B10B1204689
:100B8000216B884770BD00008000024008040240CD
:100B90000146002209B901207047204B086898429D
:100BA0000BD21F4B0868C01A1423B0FBF3F080006F
:100BB00008641B480838C8630AE0184B0868C01A64
:100BC0001423B0FBF3F08000086414480838C863AD
:100BD000022081F821000868026843F6F070824321
:100BE000D1E901031843CB6818430B6918434B69DB
:100BF00018438B691843CB691843024308680260A5
:100C000000208862C862086348638863012081F815
:100C10002100002081F8200000BFBDE70804024049
:100C2000080002402DE9F04104460D4616461F46D5
:100C30004FF0000800BF94F82000012802D10220E4
:100C4000BDE8F081012084F8200000BF94F8210065
:100C500001282CD1022084F821000020A063206804
:100C6000006820F00100216808603B4632462946B2
:100C70002046FFF767FDE06A30B12068006840F069
:100C80000E00216808600BE02068006820F0040076
:100C9000216808602068006840F00A002168086048
:100CA0002068006840F001002168086006E000BF8D
:100CB000002084F8200000BF4FF002084046BFE744
:100CC0002DE9F8470246002400200025844600272D
:100CD00000237BE14FF0010808FA03F4D1F800800B
:100CE00008EA0400A0427DD1DFF8ECA2D1F804802C
:100CF000A8EB0A09D0453AD014DCB8F1030F50D064
:100D000009DCB8F1000F31D0B8F1010F1CD0B8F1F7
:100D1000020F49D120E0B8F1110F18D0B8F1120F2D
:100D200042D11EE0B9F5881F25D006DCB9F5803F19
:100D300020D0B9F5801F37D11AE0B9F5001F18D0BF
:100D4000B9F5041F30D117E0D1F80CC02DE0D1F86F
:100D50000C8008F1040C28E0D1F80C8008F1080C94
:100D600023E0D1F80C8008F10C0C1EE000BF00BF9E
:100D700000BF00BF00BF00BFD1F80880B8F1000F6E
:100D800002D14FF0040C0BE0D1F80880B8F1010F4C
:100D900003D14FF0080C146102E04FF0080C5461CD
:100DA00003E04FF0000C00E000BF00BFFF2801D8B7
:100DB000904601E002F104084646FF2802D84FEAB7
:100DC000830803E0A3F108084FEA88084746D6F8ED
:100DD00000804FF00F0909FA07F928EA09080CFA10
:100DE00007F900E07AE048EA0908C6F80080D1F87F
:100DF000048008F08058B8F1805F6FD100BFDFF841
:100E0000DC81D8F8188048F00108DFF8D091C9F8E3
:100E10001880C846D8F8188008F00108CDF800807E
:100E200000BF00BF4FEAB9384FEA930958F829507C
:100E30004FEA83784FEA18794FF00F0808FA09F85B
:100E400025EA0805DFF89881424502D14FF00008F5
:100E500024E0DFF89081424502D14FF001081DE007
:100E6000DFF88481424502D14FF0020816E0DFF836
:100E70007C81424502D14FF003080FE0DFF870811A
:100E8000424502D14FF0040808E0DFF8688142458E
:100E900002D14FF0050801E04FF006084FEA8379D0
:100EA0004FEA197908FA09F848EA0505DFF8488198
:100EB0004FEA930948F82950D1F8048008F48038A3
:100EC000B8F5803F0BD1DFF83481D8F8008048EACC
:100ED0000008DFF82891C9F800800AE075E0DFF823
:100EE0001C81D8F8008028EA0008DFF81091C9F8C2
:100EF0000080D1F8048008F40038B8F5003F0ED126
:100F0000DFF8F88008F10408D8F8008048EA000803
:100F1000DFF8E89009F10409C9F800800DE0DFF876
:100F2000DC8008F10408D8F8008028EA0008DFF81F
:100F3000CC9009F10409C9F80080D1F8048008F4C4
:100F40008018B8F5801F0ED1DFF8B08008F10808CE
:100F5000D8F8008048EA0008DFF8A09009F10809F5
:100F6000C9F800800DE0DFF8948008F10808D8F88F
:100F7000008028EA0008DFF8849009F10809C9F820
:100F80000080D1F8048008F40018B8F5001F0ED1D5
:100F9000DFF8688008F10C08D8F8008048EA0008FB
:100FA000DFF8589009F10C09C9F800800DE0DFF86E
:100FB0004C8008F10C08D8F8008028EA0008DFF817
:100FC0003C9009F10C09C9F800805B1C102BFFF460
:100FD00081AEBDE8F887000000001110001002404B
:100FE00000080140000C01400010014000140140C5
:100FF00000180140001C01400800014000040140AD
:101000000AB1016101E00B04036170470148006807
:10101000704700000400002010B50848006840F048
:10102000100006490860052000F06AF8002000F072
:1010300007F800F019F8002010BD00000020024061
:1010400070B50446074800684FF47A71B0FBF1F5BB
:10105000284600F0CFFB00222146501E00F012F877
:10106000002070BD00000020704700BF00F01F028C
:10107000012191404209920002F1E022C2F80011E0
:1010800000BF70472DE9F05F80460D4616460027E9
:1010900000F0FCFC074639462A46334601F00700BB
:1010A000C0F1070ABAF1040F02D94FF0040A01E0B7
:1010B000C0F1070AD14600F1040ABAF1070F02D2C3
:1010C0004FF0000A01E0A0F1030AD4464FF0010AF4
:1010D0000AFA09FAAAF1010A0AEA020A0AFA0CFA59
:1010E0004FF0010B0BFA0CFBABF1010B0BEA030BFE
:1010F0004AEA0B042146404600F0D0FCBDE8F09FD0
:1011000000BF00F00702064B19684FF6FF031940B5
:10111000044B0B4343EA0221014B196000BF7047A7
:101120000CED00E00000FA0570B504460D460026FF
:101130006248006800F00700A8420ED25F480068CD
:1011400020F0070028435D4908600846006800F069
:101150000700A84201D0012070BD207800F00200F5
:10116000022807D15648406820F0F000A1680843E3
:1011700053494860207800F0010000285DD0606885
:10118000012806D14E48006800F4003090B90120D3
:10119000E2E76068022806D14948006800F0007064
:1011A00040B90120D8E74648006800F0020008B9BD
:1011B0000120D1E74248406820F0030061680843FD
:1011C0003F494860FFF722FF06466068012810D1BA
:1011D00008E0FFF71BFF801B41F28831884201D9EC
:1011E0000320B9E73648406800F00C000428F0D12D
:1011F00023E06068022810D108E0FFF707FF801B9A
:1012000041F28831884201D90320A5E72C48406883
:1012100000F00C000828F0D10FE008E0FFF7F6FE20
:10122000801B41F28831884201D9032094E7244889
:10123000406800F00C000028F0D12048006800F061
:101240000700A8420ED91D48006820F00700284377
:101250001A4908600846006800F00700A84201D05B
:10126000012079E7207800F00400042807D1144811
:10127000406820F4E060E168084311494860207844
:1012800000F00800082808D10D48406820F460509C
:10129000216940EAC1000A49486000F03DF8084968
:1012A0004968C1F30311074A515CC8400649086008
:1012B0000020FFF7C5FE00204EE70000002002409E
:1012C000001002403E89000800000020014800682C
:1012D000704700000000002000B5FFF7F7FF044949
:1012E0004968C1F30221034A515CC84000BD0000B7
:1012F000001002404E89000800B5FFF7E7FF0449DF
:101300004968C1F3C221034A515CC84000BD0000D6
:10131000001002404E890008F0B585B00FF2700C45
:101320009CE8E01001A8A0E8E0101DA52D6800953C
:10133000002100240022002300201A4D696801F0DA
:101340000C05FDB1042D02D0082D1AD101E016487C
:101350001AE001ADC1F38346AB5D01F480355DB1A8
:10136000104D6D68C5F340451DF805400E4DB5FBA9
:10137000F4F505FB03F202E00C4D03FB05F2104609
:1013800002E000BF0A4800BF00BF05B0F0BD00008A
:1013900002030405060708090A0B0C0D0E0F1010B6
:1013A0000102000000100240001BB70000093D00D0
:1013B00000127A00F8B504460025207800F00100FC
:1013C000002878D0F848406800F00C0004280CD0C1
:1013D000F548406800F00C00082811D1F248406838
:1013E00000F48030B0F5803F0AD1EF48006800F487
:1013F000003000285FD0606800285CD10120F8BD73
:1014000000BF6068B0F5803F06D1E748006840F44F
:101410008030E549086028E0606858B9E248006813
:1014200020F48030E04908600846006820F48020FD
:1014300008601AE06068B0F5A02F0BD1DA480068A8
:1014400040F48020D84908600846006840F48030A5
:1014500008600AE0D448006820F48030D24908606F
:101460000846006820F48020086000BF606888B1EA
:10147000FFF7CCFD054606E0FFF7C8FD401B6428DA
:1014800001D90320BBE7C848006800F400300028F9
:10149000F2D010E0FFF7BAFD054606E0FFF7B6FD13
:1014A000401B642801D90320A9E7BF48006800F465
:1014B00000300028F2D1207800F00200022857D135
:1014C000B948406800F00C0050B1B748406800F0DF
:1014D0000C00082818D1B448406800F4803098B94E
:1014E000B148006800F0020020B12069012801D055
:1014F000012084E7AC48006820F0F800616940EA08
:10150000C100A949086033E02069E8B10120A7497A
:101510000860FFF77BFD054606E0FFF777FD401BFF
:10152000022801D903206AE79F48006800F0020002
:101530000028F2D09C48006820F0F800616940EA79
:10154000C1009949086013E0002098490860FFF73E
:101550005DFD054606E0FFF759FD401B022801D955
:1015600003204CE79048006800F002000028F2D108
:10157000207800F0080008282DD1A069B8B101201A
:101580008B490860FFF742FD054606E0FFF73EFD88
:10159000401B022801D9032031E78348406A00F04C
:1015A00002000028F2D0012000F08CFA13E00020A5
:1015B0007F490860FFF72AFD054606E0FFF726FD94
:1015C000401B022801D9032019E77748406A00F040
:1015D00002000028F2D1207800F00400042873D122
:1015E00000267148C06900F0805070B900BF6E4895
:1015F000C06940F080506C49C8610846C06900F07D
:101600008050009000BF00BF01266A48006800F4C7
:101610008070B0B96748006840F480706549086020
:10162000FFF7F4FC054606E0FFF7F0FC401B6428DA
:1016300001D90320E3E65F48006800F480700028C9
:10164000F2D000BFE068012806D15748006A40F098
:1016500001005549086227E0E06858B95248006A1D
:1016600020F00100504908620846006A20F004009A
:10167000086219E0E06805280BD14B48006A40F089
:101680000400494908620846006A40F00100086207
:101690000AE04548006A20F0010043490862084614
:1016A000006A20F00400086200BFE068A0B1FFF704
:1016B000ADFC054609E0FFF7A9FC401B41F288316B
:1016C000884202D903209AE622E03748006A00F0F7
:1016D00002000028EFD012E0FFF798FC054608E072
:1016E000FFF794FC401B41F28831884201D9032066
:1016F00085E62D48006A00F002000028F0D1012E96
:1017000005D12948C06920F080502749C86100BF31
:10171000E069C8B32448406800F00C00082860D095
:10172000E069022848D1002020490866FFF76EFCD6
:10173000054606E0FFF76AFC401B022801D903209A
:101740005DE61948006800F000700028F2D1206AB8
:10175000B0F5803F07D11448406820F40030A168FC
:10176000084311494860D4E9080108430E49496813
:1017700021F4741108430C49486001200B490866A4
:10178000FFF744FC054607E02DE0FFF73FFC401B58
:10179000022801D9032032E60348006800F00070F7
:1017A0000028F2D01FE0000000100240000042427A
:1017B000800442420070004000200C490866FFF798
:1017C00025FC054606E0FFF721FC401B022801D955
:1017D000032014E60648006800F000700028F2D1EB
:1017E00001E001200BE6002009E600000000424273
:1017F0000010024070B504462546681EB0F1807F97
:1018000001D301200FE0681E4FF0E02148610F2155
:101810004FF0FF3000F042F900204FF0E0218861E6
:1018200007200861002070BD70B504462CB940F255
:10183000FF12034903A002F0E7FC254670BD00003B
:10184000BA890008687561727420213D204E554C9C
:101850004C00000010B504460CB9012010BDA06971
:1018600000B100E000BF94F8390028B9002084F8E6
:101870003800204600F028F8242084F83900206839
:10188000C06820F400502168C860204600F00CFABF
:101890002068006920F49040216808612068406950
:1018A00020F02A00216848612068C06840F4005098
:1018B0002168C8600020E063202084F8390084F8A3
:1018C0003A000020CAE7000010B586B004460020A8
:1018D00002900390049005901E492068884236D1FA
:1018E00000BF1D48806940F480401B49886108465C
:1018F000806900F48040019000BF00BF00BF08462F
:10190000806940F0040088610846806900F00400A6
:10191000019000BF00BF48150290022003900320F1
:10192000059002A90D48FFF7CBF94FF480600290B3
:1019300000200390049002A90848FFF7C1F9002293
:1019400005212520FFF79EFB2520FFF78EFB06B023
:1019500010BD0000003801400010024000080140A6
:1019600077B581B00446154694F83A00202850D146
:10197000029800B115B9012004B070BD00BF94F801
:101980003800012801D10220F6E7012084F8380050
:1019900000BF0298A062A5850020E063222084F8A1
:1019A0003A001D48616B88621C48616BC8621C4824
:1019B000616B08630020616B486302AE3268236884
:1019C000191D2B46606BFFF72DF900BF002000901A
:1019D00020680068009020684068009000BF00BF49
:1019E00000BF002084F8380000BF2068C06840F4C1
:1019F00080702168C8602068406940F0010021685B
:101A000048612068406940F040002168486100203A
:101A1000B2E70220B0E70000211C0008671C0008A4
:101A2000D11B00082DE9F04104462CB940F21322E5
:101A30000F4910A002F0E8FB25462C4605F1900660
:101A4000FEF704FC8046F06DC0F38F2188204059DA
:101A50000F1A0021882041514046FEF7FBFB2FB1B1
:101A6000032040EA0721304603F0D0FCBDE8F081B6
:101A7000D1890008687561727420213D204E554C53
:101A80004C000000704700BFFEE770470248006846
:101A9000C0F30220704700000CED00E010B50028F4
:101AA00007DA0A07140E054A00F00F031B1FD4546F
:101AB00003E00A07130E024A135410BD18ED00E0AC
:101AC00000E400E008B508490968C9084FF47A72D3
:101AD000B1FBF2F14143009100BF00BF00994A1EE3
:101AE00000920029F9D108BD00000020704710B510
:101AF00003F05EFE05F09EFE03F07CFE10BD0000CC
:101B000000B58FB0012005900004069000200790DA
:101B10000120099002200C90C1030D91C1040E9187
:101B200005A8FFF747FC18B13D210CA000F0AEF965
:101B30000F20009002200190002002904FF480605E
:101B400003900020049002216846FFF7EDFA18B1D7
:101B50004B2102A000F09AF90FB000BD2E2E5C526E
:101B6000542D5468726561645C6273705C626F616D
:101B700072642E63000000001148006840F001000C
:101B80000F490860084640680E4908400C49486003
:101B9000084600680C490840094908600846006882
:101BA00020F4802008600846406820F4FE00486069
:101BB0004FF41F008860C8030449086070470000A4
:101BC000001002400000FFF8FFFFF6FE08ED00E005
:101BD00070B506460025746A20684069C0F3C015D8
:101BE00094F83900212805D125B10020E084204651
:101BF00000F050F820684069C0F3801594F83A006E
:101C0000222805D125B10020E085204600F032F8D9
:101C1000E06B40F01000E0632046FFF705FE70BD6A
:101C200070B505466C6A2868006800F02000B0B9FD
:101C30000020E0852068C06820F480702168C860BA
:101C40002068406920F001002168486120684069EF
:101C500020F0400021684861202084F83A002046A6
:101C6000FFF7E0FE70BD70B50446656A2846FFF7D1
:101C700009FF70BD0168C96821F490710268D160E4
:101C80000168496921F0010102685161202180F851
:101C90003A1070470168C96821F0C0010268D1603C
:101CA000202180F8391070472DE9F04104460025C5
:101CB0002068006920F44050E16808432168086109
:101CC0002169A06808436169084305432068C0682A
:101CD00041F20C61884328432168C860206840694C
:101CE00020F44070A1690843216848615F49206879
:101CF00088425CD1FFF700FB00EBC00101EB001054
:101D000061688900B0FBF1F6FFF7F6FA00EBC0015D
:101D100001EB001061688900B0FBF1F06421B0FBB9
:101D2000F1F000EBC00101EB0010A6EB80003221C6
:101D300001EB00106421B0FBF1F000F0F006FFF7BA
:101D4000DBFA00EBC00101EB001061688900B0FB19
:101D5000F1F06421B0FBF1F006EB0016FFF7CCFACE
:101D600000EBC00101EB001061688900B0FBF1F7E6
:101D7000FFF7C2FA00EBC00101EB001061688900B7
:101D8000B0FBF1F06421B0FBF1F000EBC00101EB1E
:101D90000010A7EB8000322101EB00106421B0FBA2
:101DA000F1F000F00F003044216888605BE0FFF73D
:101DB00093FA00EBC00101EB001061688900B0FBF1
:101DC000F1F6FFF789FA00EBC00101EB0010616842
:101DD0008900B0FBF1F06421B0FBF1F000EBC00131
:101DE00001EB0010A6EB8000322101EB0010642112
:101DF000B0FBF1F000F0F006FFF76EFA00EBC00167
:101E000001EB001061688900B0FBF1F06421B0FBC8
:101E1000F1F006EB0016FFF75FFA00EBC00101EBF3
:101E2000001061688900B0FBF1F7FFF755FA00EB8D
:101E3000C00101EB001061688900B0FBF1F0642182
:101E4000B0FBF1F000EBC00101EB0010A7EB80004C
:101E5000322101EB00106421B0FBF1F000F00F0023
:101E6000304421688860BDE8F081000000380140FE
:101E700010B503F09DFC034806F016FC03F0BAFC15
:101E800010BD00000C02002000BFFEE700BFFEE70F
:101E9000014609B900207047C8B220B1C8B20E4A45
:101EA000105C401CF7E701F47F4028B10A48C1F3F9
:101EB0000722805C0930EEE701F47F0028B1064874
:101EC000C1F30742805C1130E5E7034800EB116085
:101ED00000781930DFE70000EE8C0008034908683D
:101EE000884201D0012070470020FCE72C0100202F
:101EF0002DE9F04196B0054650221A4902A8FEF796
:101F00002AFB19A72946384601F0D8FF80463A46F1
:101F1000414617A003F0D4FC404601F0F3FF1EA099
:101F200003F0CEFC2E6817E0A6F1200494F82E10E2
:101F300094F82800132805DC94F8280002AA52F827
:101F4000200000E0159823461E22CDE900014146FD
:101F50001AA003F0B5FC3668AE42E5D1002016B0F9
:101F6000BDE8F081EC910008646576696365000066
:101F7000252D2A2E73202020202020202020747937
:101F8000706520202020202020202072656620639C
:101F90006F756E740A000000202D2D2D2D2D2D2D16
:101FA0002D2D2D2D2D2D2D2D2D2D2D2D2D202D2D6E
:101FB0002D2D2D2D2D2D2D2D0A000000252D2A2E05
:101FC0002A7320252D32307320252D38640A000015
:101FD0002DE9FC4705461FA72946384601F06EFF4C
:101FE00081463A4649461DA003F06AFC484601F086
:101FF00089FF23A003F064FC2E6825E0A6F12004ED
:1020000004F1280003F0D2FCA8B904F1280003F081
:10201000E5FC8046206B23461E224946CDE9000898
:102020001FA003F04DFC04F1280006F021F913A0D5
:1020300003F046FC07E0206B23461E224946009031
:102040001DA003F03DFC3668AE42D7D10020BDE8AC
:10205000FC8700006576656E74000000252D2A2E31
:102060007320202020202073657420202020737589
:102070007370656E64207468726561640A000000A4
:1020800020202D2D2D2D2D2D2D2D2D2D202D2D2DA7
:102090002D2D2D2D2D2D2D2D2D2D2D0A0000000047
:1020A000252D2A2E2A7320203078253038782025B7
:1020B0003033643A00000000252D2A2E2A73202098
:1020C00030782530387820300A0000002DE9FE43B2
:1020D000054624A72946384601F0F0FE81463A46D7
:1020E000494622A003F0ECFB484601F00BFF28A074
:1020F00003F0E6FB2E682FE0A6F1200404F128008F
:1021000003F054FCB8B904F1280003F067FC8046E2
:10211000A08EE18E23461E22CDE90108009149469A
:1021200022A003F0CDFB04F1280006F0A1F825A0C1
:1021300003F0C6FB0FE004F1280003F04FFC8046DB
:10214000A08EE18E23461E22CDE90108009149466A
:102150001DA003F0B5FB3668AE42CDD10020BDE82E
:10216000FE8300006D61696C626F7800252D2A2E58
:102170007320656E7472792073697A652073757344
:1021800070656E64207468726561640A0000000006
:10219000202D2D2D2D20202D2D2D2D202D2D2D2DA3
:1021A0002D2D2D2D2D2D2D2D2D2D0A00252D2A2EB9
:1021B0002A7320253034642020253034642025649F
:1021C0003A0000000A000000252D2A2E2A7320253F
:1021D0003034642020253034642025640A00000057
:1021E0002DE9FF41054621A72946384601F066FE44
:1021F00080463A4641461FA003F062FB404601F08C
:1022000081FE26A003F05CFB2E6828E0A6F12004E6
:10221000A06CA8B1D4E90E31226BA06CCDE90023EB
:10222000CDE9021023461E22414625A003F048FBBB
:1022300004F1400006F01CF820A003F041FB0DE083
:10224000D4E90E30226BA16CCDE90023CDE9020167
:1022500023461E22414621A003F032FB3668AE42DF
:10226000D4D1002004B0BDE8F08100006D656D7030
:102270006F6F6C00252D2A2E7320626C6F636B20AC
:10228000746F74616C206672656520737573706518
:102290006E64207468726561640A0000202D2D2D23
:1022A0002D20202D2D2D2D20202D2D2D2D202D2D9F
:1022B0002D2D2D2D2D2D2D2D2D2D2D2D0A000000F8
:1022C000252D2A2E2A7320253034642020253034F1
:1022D000642020253034642025643A00252D2A2EE0
:1022E0002A732025303464202025303464202025B2
:1022F0003034642025640A002DE9FC47054622A7F6
:102300002946384601F0DAFD81463A46494621A081
:1023100003F0D6FA484601F0F5FD25A003F0D0FA07
:102320002E682BE0A6F1200404F1280003F03EFB08
:10233000A8B904F1280003F051FB8046208F234602
:102340001E224946CDE900081FA003F0B9FA04F1A6
:10235000280005F08DFF21A003F0B2FA0DE004F192
:10236000280003F03BFB8046208F23461E2249466F
:10237000CDE900081AA003F0A3FA3668AE42D1D125
:102380000020BDE8FC8700006D7367717565756599
:1023900000000000252D2A2E7320656E74727920AE
:1023A00073757370656E64207468726561640A0089
:1023B000202D2D2D2D20202D2D2D2D2D2D2D2D2D74
:1023C0002D2D2D2D2D0A0000252D2A2E2A73202596
:1023D000303464202025643A000000000A00000028
:1023E000252D2A2E2A732025303464202025640AC6
:1023F000000000002DE9FF47054617A7294638468B
:1024000001F05CFD81463A46494615A003F058FAB2
:10241000484601F077FD1BA003F052FA2E6814E045
:10242000A6F1200404F1280003F0D8FA804694F8BD
:1024300033001E22616B2346CDE90208CDE900215D
:10244000494618A003F03CFA3668AE42E8D10020B5
:1024500004B0BDE8F08700006D7574657800000079
:10246000252D2A2E732020206F776E65722020681C
:102470006F6C642073757370656E64207468726528
:1024800061640A00202D2D2D2D2D2D2D2D202D2D7B
:102490002D2D202D2D2D2D2D2D2D2D2D2D2D2D2D79
:1024A0002D0A0000252D2A2E2A7320252D382E2AAC
:1024B0007320253034642025640A00002DE9FC4790
:1024C000054622A72946384601F0F8FC81463A46DF
:1024D000494621A003F0F4F9484601F013FD25A078
:1024E00003F0EEF92E682BE0A6F1200404F1280099
:1024F00003F05CFAA8B904F1280003F06FFA8046F3
:10250000208E23461E224946CDE900081FA003F075
:10251000D7F904F1280005F0ABFE15A003F0D0F9BF
:102520000DE004F1280003F059FA8046208E23467E
:102530001E224946CDE9000818A003F0C1F936680B
:10254000AE42D1D10020BDE8FC87000073656D610B
:1025500070686F7265000000252D2A2E732076208A
:10256000202073757370656E642074687265616491
:102570000A000000202D2D2D202D2D2D2D2D2D2D4F
:102580002D2D2D2D2D2D2D0A00000000252D2A2E5C
:102590002A7320253033642025643A00252D2A2E05
:1025A0002A7320253033642025640A002DE9FC5F5E
:1025B00005460FF2BC092946484601F07FFC8346D8
:1025C0004A4659462C4803F07BF9584601F09AFCDC
:1025D0002AA003F075F9D5F8008043E0A8F12004A3
:1025E00094F8490023461E225946009033A003F078
:1025F00067F994F8480000F00F06012E03D132A0CD
:1026000003F05EF90FE0022E03D132A003F058F977
:1026100009E01EB932A003F053F904E0042E02D100
:1026200032A003F04DF9E76B00E07F1C38782328D7
:10263000FBD0D4E90F100844C01B64214843216C2F
:10264000B0FBF1FA616C206FCDE90001D4E90F30E5
:102650001844236BC11A534627A0226C03F030F9AB
:10266000D8F80080A845B9D10020BDE8FC9F000043
:10267000746872656164000030960008202D2D2D6D
:1026800020202D2D2D2D2D2D2D202D2D2D2D2D2DA1
:102690002D2D2D2D202D2D2D2D2D2D2D2D2D2D2084
:1026A000202D2D2D2D2D2D20202D2D2D2D2D2D2D81
:1026B0002D2D2D202D2D2D0A00000000252D2A2E38
:1026C0002A732025336420002072656164792020FC
:1026D000000000002073757370656E6400000000D8
:1026E00020696E69742020200000000020636C6F58
:1026F00073652020000000002030782530387820D5
:102700003078253038782020202025303264252567
:1027100020202030782530387820253033640A0096
:102720002DE9FC4705461BA72946384601F0C6FBA4
:1027300080463A46414619A003F0C2F8404601F0EF
:10274000E1FB20A003F0BCF82E6817E0A6F12004FE
:10275000D4E90E0123461E22CDE90001414622A004
:1027600003F0AEF8E07F00F0010018B124A003F000
:10277000A7F802E025A003F0A3F83668AE42E5D141
:1027800005F052F88146494624A003F099F800204C
:10279000BDE8FC8774696D6572000000252D2A2E46
:1027A000732020706572696F6469632020207469EA
:1027B0006D656F757420202020202020666C616775
:1027C0000A000000202D2D2D2D2D2D2D2D2D2D20FD
:1027D0002D2D2D2D2D2D2D2D2D2D202D2D2D2D2D36
:1027E0002D2D2D2D2D2D0A00252D2A2E2A7320303A
:1027F000782530387820307825303878200000006F
:102800006163746976617465640A0000646561637C
:10281000746976617465640A000000006375727201
:10282000656E74207469636B3A3078253038780AA5
:10283000000000002DE9F04389B00546894617469F
:1028400000242DB940F217121C491DA001F0DCFC38
:102850002FB94FF48C7219491AA001F0D5FC00E091
:10286000641C285D202804D0285D092801D04C452F
:10287000F6D324B94FF0FF3009B0BDE8F08321460C
:10288000284601F037FA064616B94FF0FF30F3E755
:10289000202101A8FDF7B3FE01AA4946284601F010
:1028A00095FA8046B8F1000F02D14FF0FF30E3E710
:1028B00001A94046B04738600020DDE74792000894
:1028C000636D6400726574700000000070B50446AA
:1028D00024B94B22144915A001F096FCE06B007856
:1028E000232809D1E16B206B884205D9D4E90F0177
:1028F0000844216B88420CD2214611A002F0E0FF6F
:1029000001F0A4F8FDF7A2FC054600BF002DFDD1A3
:1029100008E0E06B2030216B814203D821460FA0F4
:1029200002F0CEFF70BD0000138F0008746872655E
:10293000616420213D2052545F4E554C4C000000F4
:102940007468726561643A257320737461636B20E7
:102950006F766572666C6F770A0000007761726E41
:10296000696E673A20257320737461636B20697305
:1029700020636C6F736520746F2074686520626FCC
:1029800074746F6D206F6620737461636B20616473
:1029900064726573732E0A002DE9FC5F04468B4652
:1029A00016461F46DDE90C9ADDE90E5804F12800B1
:1029B0004060006000BF6663A763C4F83C90C4F841
:1029C00040A02321D4E90F0203F0E1F9D4E90F3C40
:1029D00063441A1F1A4BD4E90D0102F047FE20632D
:1029E000202D04DB9622174917A001F00DFC44347A
:1029F000A57165710020A060C4F82880C4F82C80FF
:102A00002060207120676067443C00902346174A8D
:102A10002146019004F1740005F044F80020E065BF
:102A2000A06520666066A06600BF1148006818B106
:102A300020460F490968884700BF0020BDE8FC9F79
:102A400015710008A98F00087072696F7269747936
:102A5000203C2052545F5448524541445F505249F3
:102A60004F524954595F4D4158000000AD7600085F
:102A7000440100202DE9F04704460E4617469846CB
:102A8000DDF8209084F81F90E07F20F00100E077CF
:102A9000266367630020E063C4F83880002506E001
:102AA00004F1280101EBC50002F047FF6D1C012D68
:102AB000F6DBBDE8F08710B50246002001460EE0C7
:102AC00002F1280303EBC100D0E900436360D0E9C1
:102AD000003423604060006000BF481C01460129AB
:102AE000EEDB10BD2DE9F04704460F46904604B1D9
:102AF0002FB94FF4DE72404940A001F085FBFDF78D
:102B0000A5FB8246E06DC0F38F2000282DD1002662
:102B1000256E2DB94FF4E372374943A001F074FBE1
:102B20002868012813D001202860606D006928B949
:102B300040F2CB12304941A001F066FB606D0123E9
:102B400042463946D0F810C02046E04701E06FF019
:102B500006065046FDF77EFB16B94046BDE8F087F5
:102B6000304604F06BF80020F8E7256E002620467A
:102B700002F01CF981462DB940F2DB121E4939A042
:102B800001F042FBC84501D2464600E04E46E888C7
:102B90008119E06DC0F38F20814207D2EA8828684E
:102BA00081183246384603F093F81CE0E06DC0F31C
:102BB0008F20EB88C21A2868C118384603F088F8BD
:102BC000EB8803EB060CE36DC3F38F23ACEB03023E
:102BD000E36DC3F38F233B44B5F806C0A3EB0C00B1
:102BE000296803F075F83146204602F0E5F85046B2
:102BF000FDF730FB3046B1E7149400082873657286
:102C000069616C20213D2052545F4E554C4C292067
:102C1000262620286461746120213D2052545F4E95
:102C2000554C4C290000000072785F646D612021D2
:102C30003D2052545F4E554C4C0000007365726944
:102C4000616C2D3E6F70732D3E646D615F747261B7
:102C50006E736D697420213D2052545F4E554C4C6B
:102C60000000000072785F6669666F20213D205287
:102C7000545F4E554C4C00002DE9F0470446884601
:102C80001646656E4FF0FF3332464146281D01F06F
:102C90008DFD0746CFB9FDF7D9FA8146286801288E
:102CA0000DD0012028604846FDF7D4FA606D02235C
:102CB00032464146D0F810C02046E04702E0484680
:102CC000FDF7C8FA3046BDE8F087384603F0B6FF96
:102CD0000020F8E770B505462C6E2CB940F24F1273
:102CE0000F4910A001F090FAA088E188884207D12E
:102CF000A06808B9002070BDE86DC0F38F20FAE726
:102D0000A088E188884203DDA088E188401AF2E7C4
:102D1000E088A188411AE86DC0F38F20401AEAE7E5
:102D2000BD93000872785F6669666F20213D20526E
:102D3000545F4E554C4C00002DE9F04706460F46B7
:102D400015462EB940F207121E491FA001F05CFA89
:102D5000A846346E2CB940F20B121A491FA001F09C
:102D600053FA28E0FDF772FA8246E088A18888428B
:102D700005D1A06818B95046FDF76CFA1DE0E1884E
:102D8000206810F80190E088401CE080E188F06D38
:102D9000C0F38F20814201DB0020E080A068012881
:102DA00001D10020A0605046FDF754FA87F800904A
:102DB0007F1C6D1E00BF002DD4D100BFA8EB050005
:102DC000BDE8F0879F93000873657269616C2021EC
:102DD0003D2052545F4E554C4C00000072785F66A7
:102DE00069666F20213D2052545F4E554C4C0000C7
:102DF0002DE9F04105460E4614462DB940F2371232
:102E00001149124801F000FAA0466F6E2FB940F246
:102E10003B120D490EA001F0F7F90FE03178686D13
:102E2000826828469047401C28B94FF0FF31384649
:102E300001F08EFA02E0761C641E00BF002CEDD17A
:102E4000A8EB0400BDE8F081AE930008A82E0008AE
:102E5000747820213D2052545F4E554C4C000000A8
:102E60002DE9F04106460F46144626B9D4220D49F5
:102E70000DA001F0C9F9A0460DE0706DC1683046A3
:102E800088470546681C00B907E03D707F1C641E3A
:102E90000A2D00D101E0002CEFD100BFA8EB040007
:102EA000BDE8F0817F93000873657269616C202131
:102EB0003D2052545F4E554C4C0000002DE9F0412E
:102EC00004460E46154624B9E8220F490F4801F082
:102ED0009BF92F4613E030780A2809D194F82C008A
:102EE00000F0400020B1606D0D21826820469047BF
:102EF0003178606D826820469047761C6D1E002DEB
:102F0000E9D1781BBDE8F0818F930008A82E000856
:102F100010B520A002F0D4FC2148017821A002F0D5
:102F2000CFFC1F48007800F0010010B123A002F090
:102F3000C7FC1B48007800F0020010B122A002F08C
:102F4000BFFC1748007800F0040010B121A002F087
:102F5000B7FC1348007800F0080010B121A002F07F
:102F6000AFFC0F48007800F0100010B120A002F074
:102F7000A7FC0B48007800F0800030B108480F3003
:102F800001681DA002F09CFC02E01FA002F098FC6A
:102F900010BD0000627573206661756C743A0A009A
:102FA00029ED00E05343425F434653525F4246538C
:102FB000523A3078253032582000000049425553AB
:102FC000455252200000000050524543495345529B
:102FD00052200000494D505245434953455252201A
:102FE00000000000554E53544B4552522000000043
:102FF00053544B45525220005343422D3E424641CA
:10300000523A253038580A000A00000070B50446CC
:103010000D4600F0BBFC002070BD70B504460D46A7
:1030200000F014FD002070BD024600207047000033
:1030300010B51448006890F83500C0F3400020B97E
:10304000002011490870084610BD1048006838B1CA
:1030500080220E4801680C48FDF7F8FA0A48F3E7A9
:1030600000F0B2FE20B10AA10748FDF795F903E090
:1030700009A10548FDF790F909A10348FDF71AFADF
:103080000148E1E764010020B00800206801002049
:103090006D7368200000000066696E736820000090
:1030A0003E00000008B50E48006820B990220D4986
:1030B0000DA001F0A9F805E04FF0FF3108480068C5
:1030C00003F0F4F90649096801236A46D1F81C02A5
:1030D000991E01F05BFD0128EED19DF8000008BDAE
:1030E00064010020A09200087368656C6C20213D8B
:1030F0002052545F4E554C4C0000000070B5044601
:103100000D460748006820B99B22064906A001F039
:103110007BF80348006803F081F9002070BD0000CF
:1031200064010020AE9200087368656C6C20213D3C
:103130002052545F4E554C4C0000000070B50546BF
:1031400000242548006820B9AE22244924A001F0BB
:103150005BF8284601F034FC044624B9294625A032
:1031600002F0AEFB70BD1C480068D0F81C02A04203
:1031700000D1F7E740F24311204601F05FFC48BB65
:1031800015480068D0F81C0260B113490968D1F8ED
:103190001C0201F0BBFB10490968D1F81C02002198
:1031A00001F06AFD50210C48006800F5E570FDF75C
:1031B00004FA00200849096881F81A0206490968DA
:1031C00081F81B0204480068C0F81C4211492046DF
:1031D00001F052FD00BFC5E764010020BB9200086A
:1031E0007368656C6C20213D2052545F4E554C4CE9
:1031F0000000000066696E73683A2063616E206E9D
:103200006F742066696E64206465766963653A2030
:1032100025730A00FD30000810B50446094800680F
:1032200020B98522084909A000F0EEFF0548006892
:1032300090F8350064F341000249096881F83500CF
:1032400010BD0000640100208A9200087368656C5C
:103250006C20213D2052545F4E554C4C0000000024
:10326000024A1060024A1160704700006C010020A1
:10327000700100207CB5002517491848FFF7F0FFC2
:103280004FF40871012000F0F9FF15490860084665
:10329000006820B913A002F013FB681E7CBD0A2051
:1032A00014214FF480530022CDE90010134914A0DB
:1032B00003F002FF044600231A4613A108480068E1
:1032C00003F088F80120FFF7A7FF1CB115B92046CD
:1032D00004F03CF90020E1E77C980008A49700087E
:1032E000640100206E6F206D656D6F727920666FCE
:1032F00072207368656C6C0A0000000011330008CE
:10330000747368656C6C000073687278000000006C
:10331000FE48006890F8350020F00100401CFB4991
:10332000096881F83500F9480068D0F81C0238B9FE
:1033300001F0CAF8054615B12846FFF7FFFE00BFA9
:10334000FFF776FE054602F0BBFA5CE2FFF7AAFE45
:1033500004461B2C05D10120EC49096881F8340092
:1033600051E2EA48006890F8340001280DD15B2C46
:1033700005D10220E549096881F8340043E20020C4
:10338000E249096881F83400BEE0E048006890F83E
:1033900034000228F8D10020DC49096881F83400A3
:1033A000412C36D1D9480068C08E002807DDD748A7
:1033B0000068C08E401ED5490968C88604E0002018
:1033C000D2490968C8861EE2D0480068C08E00EB6A
:1033D0008002CE4800683A3000EB02115022CB4800
:1033E000006800F5E570FDF771F8C848006800F561
:1033F000E570FCF7F5FFC0B2C449096881F81A020C
:10340000C249096881F81B02C048006804F0ACFE9C
:10341000F9E1422C42D1BD480068C18EBB4800682A
:10342000008F401E814207DAB8480068C08E401CF9
:10343000B6490968C8860CE0B4480068008F38B106
:10344000B2480068008F401EB0490968C88600E095
:10345000D9E1AE480068C08E00EB8002AB4800683E
:103460003A3000EB02115022A848006800F5E570E0
:10347000FDF72CF8A548006800F5E570FCF7B0FFF3
:10348000C0B2A249096881F81A02A049096881F806
:103490001B029E48006804F067FEB4E1442C11D181
:1034A0009A48006890F81B0258B199A002F008FAF7
:1034B0009648006890F81B02401E9449096881F8FC
:1034C0001B02A0E1432C1FD19048006890F81B021A
:1034D0008E49096891F81A12884214DA8B480068FC
:1034E00090F81B228948006800F5E570815C89A08E
:1034F00002F0E6F98548006890F81B02401C8349F9
:10350000096881F81B027EE10CB1FF2C00D17AE141
:10351000092C21D1002503E07DA002F0D1F96D1C1A
:103520007A48006890F81B02A842F5DC77480068EA
:1035300000F5E57004F0FCFD7448006800F5E570E6
:10354000FCF74EFFC0B27149096881F81A026F4951
:10355000096881F81B0256E17F2C01D0082C74D138
:103560006A48006890F81B0200B94CE1674800689F
:1035700090F81A02401E6549096881F81A026348EA
:10358000006890F81B02401E6049096881F81B0220
:103590005E48006890F81A025C49096891F81B12AD
:1035A000884243DD594B1B6893F81A32574E3668F0
:1035B00096F81B629A1B554B1B6893F81B325B1CD9
:1035C000524E366806F5E5769919504B1B6893F80C
:1035D0001B624E4B1B6803F5E573F01802F0B6FB57
:1035E00000224A48006890F81A124848006800F51E
:1035F000E57042544548006890F81B224348006833
:1036000000F5E570111844A002F05AF93F4800682F
:1036100090F81B5203E03EA002F052F96D1C3B48AB
:10362000006890F81A02A842F5DA0CE03CA002F01B
:1036300047F900223548006890F81A1233480068AC
:1036400000F5E5704254DEE0FFE70D2C01D00A2CB6
:1036500031D12E48006804F09FFD00F0B5FB012831
:1036600013D12A48006890F8350000F0010010B12D
:103670002CA002F025F92548006890F81A1223487A
:10368000006800F5E57000F0FFFAFFF7D1FC054691
:1036900002F016F950211D48006800F5E570FCF7AE
:1036A0008CFF00201949096881F81A021749096836
:1036B00081F81B02A7E01548006890F81A0250280C
:1036C00004DB00201149096881F81A020F480068DC
:1036D00090F81B020D49096891F81A1288425ADACB
:1036E0000A4B1B6893F81A32084E366896F81B622C
:1036F0009A1B064B1B6893F81B62044B1B6803F56F
:10370000E573F118014B1B680EE000006401002016
:103710000800000025630000082573202008000031
:10372000082008000A00000093F81B325B1C364E8C
:10373000366806F5E576981902F008FB324800680D
:1037400090F81B123048006800F5E57044542E488C
:10375000006890F8350000F0010058B12A48006870
:1037600090F81B222848006800F5E570111827A082
:1037700002F0A6F82448006890F81B5204E0AFF26B
:10378000700002F09DF86D1C1F48006890F81A0246
:10379000A842F4DC14E01C48006890F81A121A4899
:1037A000006800F5E57044541748006890F835004B
:1037B00000F0010020B12146AFF2A80002F080F82D
:1037C00000241148006890F81A02401C0E4909684C
:1037D00081F81A020C48006890F81B02401C0A4944
:1037E000096881F81B020848006890F81A025028FE
:1037F00008DB00200449096881F81A0202490968B7
:1038000081F81B0200BFA1E56401002025730000C0
:1038100010B51448006800F0020010B112A002F0C8
:103820004FF81048006800F0804088B10D48C01E75
:10383000007808B1FFF76CFB0A48001F007808B158
:1038400000F05EF90748801E008808B104F0FEFF12
:103850000448006800F0004010B109A002F030F800
:1038600010BD00002CED00E06661696C6564207697
:103870006563746F722066657463680A00000000F7
:103880006465627567206576656E740A00000000E5
:1038900010B502A002F014F8002010BD48656C6C51
:1038A0006F2052542D546872656164210A00000033
:1038B00000B585B000BF0F48806940F004000D4995
:1038C00088610846806900F00400009000BF00BFD6
:1038D000F0200190012002900320049001A90648E5
:1038E000FDF7EEF90022F0210348FDF789FB05B052
:1038F00000BD0000001002400008014010B50CA0FF
:1039000001F0DEFF0F4804680CE002220EA12068DF
:10391000FCF785FD00B904E00CA0216801F0D0FFA0
:1039200000BF08340A4800688442EED3002010BD6E
:103930002D2D46756E6374696F6E204C6973743AF1
:103940000A0000006C0100205F5F000025730A0080
:103950007001002010B5082002F0D6FB0446201D9F
:10396000FEF7C6FA10BD10B5032002F0CDFB0446E9
:10397000201DFEF72DFB10BD10B5042002F0C4FB86
:103980000446201DFEF7A2FB10BD000010B508483C
:10399000016808A001F094FF0B4801680BA001F03A
:1039A0008FFF0F4801680FA001F08AFF10BD0000D3
:1039B00064000020746F74616C206D656D6F7279A6
:1039C0003A2025640A0000006800002075736564D1
:1039D000206D656D6F7279203A2025640A00000021
:1039E0006C0000206D6178696D756D20616C6C6F85
:1039F0006361746564206D656D6F72793A2025642A
:103A00000A00000010B5072002F07EFB0446201DCE
:103A1000FEF7E6FB10BD10B5052002F075FB04466D
:103A2000201DFEF769FC10BD10B5022002F06CFBF2
:103A30000446201DFEF7DEFC10BD10B5012002F08B
:103A400063FB0446201DFEF739FD10BD10B50020B4
:103A500002F05AFB0446201DFEF7A8FD10BD10B56C
:103A6000092002F051FB0446201DFEF759FE10BD4F
:103A70003BE0012210211D48FDF7C2FA4FF47A7095
:103A800003F0C8FC012220211848FDF7B9FA4FF4D1
:103A90007A7003F0BFFC012240211448FDF7B0FA10
:103AA0004FF47A7003F0B6FC012280210F48FDF735
:103AB000A7FA4FF47A7003F0ADFC002210210B48F6
:103AC000FDF79EFA002220210848FDF799FA00220E
:103AD00040210648FDF794FA002280210348FDF7B3
:103AE0008FFA4FF47A7003F095FCC2E700080140AA
:103AF00010B5044600F0DAFCFFF7BAFF10BD000075
:103B000010B51CA001F0DCFE1F4801781FA001F0D9
:103B1000D7FE1D48007800F0010010B121A001F08F
:103B2000CFFE1948007800F0020010B120A001F08B
:103B3000C7FE1548007800F0080010B11FA001F082
:103B4000BFFE1148007800F0100010B11EA001F077
:103B5000B7FE0D48007800F0800030B10A480C3004
:103B600001681CA001F0ACFE02E01EA001F0A8FE5E
:103B700010BD00006D656D206D616E61676520662A
:103B800061756C743A0A000028ED00E05343425F0F
:103B9000434653525F4D4653523A3078253032589F
:103BA000200000004941434356494F4C200000008B
:103BB0004441434356494F4C200000004D554E535D
:103BC000544B4552522000004D53544B4552522005
:103BD000000000005343422D3E4D4D41523A2530E6
:103BE00038580A000A0000002DE9F04781460026F7
:103BF000002799F8000028B90021084600F0A8F82D
:103C0000BDE8F0871B48046827E006221AA1206857
:103C1000FCF705FC00B11FE0206800F106084846EB
:103C2000FCF7DEFB8246524641464846FCF7F7FB6E
:103C300088B926B947463846FCF7D2FB06464146C6
:103C4000384604F021FD0546B54200DA2E464146CD
:103C50000BA001F035FE00BF08340A48006884421A
:103C6000D3D327B132463946484603F0CAF800BFDD
:103C7000C6E700006C0100205F5F636D645F0000B9
:103C800025730A007001002038B504460D4601E096
:103C9000641C6D1E20782028FAD020780928F7D0DF
:103CA0000DB9002038BD6A4629462046FEF7C2FD00
:103CB00008B90098F6E7204600E0401C017820296A
:103CC00002D001780029F8D100210170214603A01B
:103CD00001F0F6FD4FF0FF30E4E7000025733A20D5
:103CE000636F6D6D616E64206E6F7420666F756EAC
:103CF000642E0A002DE9F04106460D4600271048C3
:103D0000046815E006220FA12068FCF788FB00B1CB
:103D10000DE02168881D2A463146FCF780FB28B952
:103D2000A81D2168085C08B9676805E000BF083471
:103D3000064800688442E5D300BF3846BDE8F081FC
:103D40006C0100205F5F636D645F00007001002004
:103D500070B505460E460EA001F0B2FD134804688A
:103D60000DE0062212A12068FCF759FB00B105E026
:103D70002068811D10A001F0A3FD00BF0834104889
:103D800000688442EDD30FA001F09AFD002070BDC1
:103D900052542D546872656164207368656C6C20A0
:103DA000636F6D6D616E64733A0A00006C010020F0
:103DB0005F5F636D645F00002573200A00000000F0
:103DC000700100200A000000012070472DE9F04733
:103DD00082460E46904654460025002755E003E0F3
:103DE00000202070641C6D1C2078202802D02078D0
:103DF000092801D1B542F3D3082F12D326A001F030
:103E00005FFD4FF0000906E058F829102AA001F0E4
:103E100057FD09F10109B945F6D326A001F050FD7F
:103E200035E0B54200D332E0207822281CD1641C52
:103E30006D1C48F827407F1C09E020785C2804D1DD
:103E40006078222801D1641C6D1C641C6D1C2078D4
:103E5000222801D0B542F0D3B54200D317E00020AC
:103E60002070641C6D1C10E048F827407F1C01E0A6
:103E7000641C6D1C2078202804D02078092801D0EB
:103E8000B542F5D3B54200D301E0B542A7D300BF98
:103E90003846BDE8F0870000546F6F206D616E7981
:103EA00020617267732021205765206F6E6C792026
:103EB0005573653A0A000000257320002DE9F0478C
:103EC00080460E464FF00009404602F07DFF044652
:103ED00001F01AF8376809E0A7F12009484602F016
:103EE00073FF0546A54200DD2C463F68B742F3D17B
:103EF00001F01AF81E2C00DC04B91E242046BDE88F
:103F0000F087000010B5044602E004A001F0D8FCE0
:103F1000201EA4F10104F8D110BD00002D00000006
:103F200070B5044626480068844204D2942225498C
:103F300025A000F069F92C480068844204D395223A
:103F400020492AA000F060F9608820B196221D491E
:103F500031A000F059F91A49606809684518AC4267
:103F600015D0688898B92048006885420FD02E483F
:103F70000068A84201D12C4804606868606010485D
:103F80000068201A0E4A69681268114488600C495A
:103F9000A06809684618A64211D0708878B92248EE
:103FA0000068A04201D12048066060687060044843
:103FB0000068301A024A616812681144886070BD56
:103FC00058000020198E00082872745F75696E749D
:103FD000385F74202A296D656D203E3D206865613B
:103FE000705F7074720000005C0000202872745FC3
:103FF00075696E74385F74202A296D656D203C20C8
:104000002872745F75696E74385F74202A29686538
:1040100061705F656E6400006D656D2D3E75736542
:1040200064203D3D20300000600000202DE9F04F6D
:1040300085B00D469C46DDE90F740E9B04F04008E8
:10404000B8F1000F02D0DFF8688101E0DFF8648189
:10405000CDF8008004F01008B8F1000F01D024F072
:10406000010404F00108B8F1000F02D04FF030084D
:1040700001E04FF02008C246002604F00208B8F123
:10408000000F11D0002A02DA2D2652420CE004F073
:104090000408B8F1000F01D02B2605E004F0080851
:1040A000B8F1000F00D02026002142B94FF0300BAC
:1040B0008846491C0DF1040909F808B01DE01AE012
:1040C000E146B9F10A0F08D14FF00A0BB2FBFBFE33
:1040D0000BFB1E28B2FBFBF202E002F00F081209F4
:1040E00000BFDDF8009019F808B08846491C0DF1B2
:1040F000040909F808B0002AE2D1B94200DD0F46F0
:10410000DB1B04F01108B8F1000F10D116B1002B21
:1041100000DD5B1E06E0A84203D84FF0200880F8BF
:104120000080401CB3F10008A3F10103F3DC26B1C9
:10413000A84201D806705B1E401C04F01008B8F1BC
:10414000000F0AD104E0A84201D880F800A0401C6A
:10415000B3F10008A3F10103F5DC06E0A84203D89F
:104160004FF0300880F80080401CB8467F1E88451C
:10417000F4DC08E0A84205D80DF1040818F8018025
:1041800080F80080401CB1F10008A1F10101F1DCD0
:1041900006E0A84203D84FF0200880F80080401CB9
:1041A000B3F10008A3F10103F3DC05B0BDE8F08F23
:1041B000FF8D0008EE8D00081CB514200A214FF475
:1041C00000630022CDE90010074908A002F074FF47
:1041D000044624B9C622074907A000F015F8204676
:1041E00003F0B4F91CBD0000F13A00086D61696E7E
:1041F00000000000048A000874696420213D2052F8
:10420000545F4E554C4C0000F8B504460D4616461A
:10421000002000900A48006858B933462A462146D3
:1042200008A001F04DFB00BF9DF800000028FBD066
:1042300005E0324629462046014B1B689847F8BDE9
:104240004C000020282573292061737365727469FE
:104250006F6E206661696C65642061742066756E9E
:104260006374696F6E3A25732C206C696E65206EDD
:10427000756D6265723A2564200A000070B50446C7
:104280000D4604FB05F001F0C5FB06462EB104FB0C
:1042900005F20021304601F07AFD304670BD000085
:1042A00070B5044624B96422104911A0FFF7ACFF91
:1042B0002068012800D170BDFBF7C8FF0646012029
:1042C0002060201D01F07AFB58B96068A0F1280534
:1042D000284603F0A9F83046FBF7BCFF01F09EFF2B
:1042E00002E03046FBF7B6FF00BFE4E72193000889
:1042F000636F6D706C6574696F6E20213D20525440
:104300005F4E554C4C00000070B5044624B9152290
:10431000084909A0FFF778FFFBF798FF0546002042
:104320002060201D4060006000BF2846FBF792FF20
:1043300070BD0000FB920008636F6D706C6574695E
:104340006F6E20213D2052545F4E554C4C000000B2
:104350002DE9F341054625B924222F492FA0FFF767
:1043600053FF002603F0ACF80446FBF76FFF074647
:104370002868012846D0281D01F020FB20B92D22F5
:1043800025492CA0FFF740FF019810B96FF00106F6
:104390003BE000206064204603F038F9281D04F15A
:1043A00028014268116042684A604160086000BFAD
:1043B00000BFFBF74BFF804601F016FA40B11649EB
:1043C00028A001F07DFA4022134930A0FFF71CFF1E
:1043D0004046FBF73FFF00BF0198002809DD01AA16
:1043E000002104F1740003F097FA04F1740003F063
:1043F00091FB3846FBF72EFF01F010FF666CFBF7D0
:1044000025FF07460020286000BF3846FBF722FF43
:104410003046BDE8FC8100000E930008636F6D70AC
:104420006C6574696F6E20213D2052545F4E554C6F
:104430004C00000072745F6C6973745F6973656D22
:10444000707479282628636F6D706C6574696F6E5F
:104450002D3E73757370656E6465645F6C6973740B
:104460002929000046756E6374696F6E5B25735D64
:10447000207368616C6C206E6F74206265207573A8
:10448000656420696E204953520A00003000000024
:1044900010B5044C02E020688047241D0248844285
:1044A000F9D310BD949700089897000810B5044CF4
:1044B00002E020688047241D02488442F9D310BDE1
:1044C00098970008A097000801480068704700000E
:1044D0004800002070B505460A480668284600F0E6
:1044E0006FFA044664B10748006818B105480068CF
:1044F00000F00CFA4321204600F0A0FA01480460C5
:10450000304670BD480000202DE9F04104460D46BC
:1045100016461F4624B91C220E490FA0FFF774FE51
:1045200027622580668000202081608104F11000D0
:1045300001F006FA04F1180001F002FAE80001F0B7
:1045400069FAE060E06818B96FF00400BDE8F08136
:104550000020FBE734930008717565756520213DE7
:104560002052545F4E554C4C000000002DE9F041A4
:1045700004460D46164624B9F822164916A0FFF740
:1045800043FEFBF763FE074620896189884206D116
:104590003846FBF75FFE6FF00300BDE8F08120892D
:1045A000218890FBF1F201FB1200E16851F8300024
:1045B00028602089218890FBF1F201FB1200E1685C
:1045C00001EBC000406830603846FBF743FE002036
:1045D000E3E700006C930008717565756520213D67
:1045E0002052545F4E554C4C000000002DE9FF470F
:1045F00004460F46904624B99522524952A0FFF72F
:1046000003FE27B996224F4954A0FFF7FDFDB8F1EC
:10461000000F04D197224B4955A0FFF7F5FD002666
:1046200002F04EFF0546FBF711FE81463BE0039882
:1046300010B96FF0010678E000BFFBF707FE824675
:1046400001F0D2F840B13F494DA001F039F9A7225D
:104650003C4955A0FFF7D8FD5046FBF7FBFD00BFD6
:1046600000206864284602F0D1FF05F1280104F11A
:10467000180001F084F90398002809DD03AA00213D
:1046800005F1740003F048F905F1740003F042FAF3
:104690004846FBF7DFFD01F0C1FD6E6CFBF7D6FD70
:1046A000814606B141E0208961898842BFD02089D6
:1046B000218890FBF1F201FB1200E16851F8300013
:1046C00038602089218890FBF1F201FB1200E1683B
:1046D00001EBC0004068C8F800002089401C208120
:1046E00060892189401A618888421DDC04F110002C
:1046F00001F06CF958B92069A0F12805284602F0AC
:1047000093FE4846FBF7A6FD01F088FD02E048460F
:10471000FBF7A0FD206A18B103212046226A9047CA
:10472000304604B0BDE8F08700BF4846FBF792FD75
:104730002EB9206A18B101212046226A90473046DE
:10474000EFE700005A930008717565756520213DFB
:104750002052545F4E554C4C00000000646174615F
:104760005F70747220213D2052545F4E554C4C00B6
:1047700073697A6520213D2052545F4E554C4C00A0
:1047800046756E6374696F6E5B25735D2073686137
:104790006C6C206E6F74206265207573656420698F
:1047A0006E204953520A0000300000002DE9FF47F7
:1047B00004460F46904624B93C22434943A0FFF7E4
:1047C00023FD002602F07CFE0546FBF73FFD8146F7
:1047D0003BE0039810B96FF0010668E000BFFBF7FB
:1047E00035FD824601F000F840B137493CA001F0A8
:1047F00067F84D22344944A0FFF706FD5046FBF709
:1048000029FD00BF00206864284602F0FFFE05F184
:10481000280104F1100001F0B2F80398002809DD26
:1048200003AA002105F1740003F076F805F1740085
:1048300003F070F94846FBF70DFD01F0EFFC6E6CDC
:10484000FBF704FD814606B131E060892189401AF9
:1048500021888842BDD06089218890FBF1F201FB5C
:104860001200E16841F830706089218890FBF1F214
:1048700001FB1200E16801EBC000C0F80480608910
:10488000401C608104F1180001F0A0F870B9A06923
:10489000A0F12805284602F0C7FD4846FBF7DAFCE0
:1048A00001F0BCFC304604B0BDE8F08700BF4846CC
:1048B000FBF7D0FC2EB9206A18B102212046226AEB
:1048C00090473046EFE70000479300087175657523
:1048D0006520213D2052545F4E554C4C0000000095
:1048E00046756E6374696F6E5B25735D20736861D6
:1048F0006C6C206E6F74206265207573656420692E
:104900006E204953520A00003000000070B5044682
:1049100000252CB940F23512154916A0FFF774FC9A
:10492000204601F005FC082805D04FF49B72104981
:1049300014A0FFF769FC94F82E0010B94FF0FF3077
:1049400070BD14F82E0F401E207014F82E0908B107
:104950000020F5E7206C18B12046216C88470546F9
:104960000DB1A81D08B90020A0852846E8E7000081
:104970006C8A000864657620213D2052545F4E55B4
:104980004C4C000072745F6F626A6563745F6765A8
:10499000745F7479706528266465762D3E70617247
:1049A000656E7429203D3D2052545F4F626A6563F5
:1049B000745F436C6173735F44657669636500007F
:1049C0002DE9F041064602F07BFD08B100F09CFAAB
:1049D000082001F099FB044624B97C22104911A05B
:1049E000FFF712FC656810E0A5F120071E22314692
:1049F000384602F0F2F938B902F062FD08B100F071
:104A000093FA3846BDE8F0812D68201D8542EBD130
:104A100002F056FD08B100F087FA0020F2E700002E
:104A20002D8A0008696E666F726D6174696F6E2001
:104A3000213D2052545F4E554C4C000070B5044649
:104A40000E46002524B9F42229492AA0FFF7DCFBF1
:104A5000204601F06DFB082804D0F522244929A046
:104A6000FFF7D2FB94F82A0000F0100088B9A06B81
:104A700058B12046A16B8847054635B12A462146E4
:104A80002FA000F01DFF284670BD608D40F0100083
:104A9000608594F82A0000F0080038B194F82C00E2
:104AA00000F0080010B16FF00600EDE7E06B28B1F0
:104AB00031462046E26B9047054603E040F60F7012
:104AC0003040A0850DB1A81D80B934F82C0F40F0FE
:104AD00008002080A078401CA070A0782C3C28B949
:104AE00040F22312024924A0FFF78EFB2846CBE7B1
:104AF0005D8A000864657620213D2052545F4E5542
:104B00004C4C000072745F6F626A6563745F676526
:104B1000745F7479706528266465762D3E706172C5
:104B2000656E7429203D3D2052545F4F626A656373
:104B3000745F436C6173735F4465766963650000FD
:104B4000546F20696E697469616C697A6520646567
:104B5000766963653A2573206661696C65642E2009
:104B6000546865206572726F7220636F6465206996
:104B7000732025640A0000006465762D3E72656628
:104B80005F636F756E7420213D2030002DE9F04188
:104B900004460D4616461F462CB940F25F121449D2
:104BA00014A0FFF731FB204601F0C2FA082805D017
:104BB0004FF4B0720E4913A0FFF726FB94F82E00B5
:104BC00030B94FF0FF3002F039F80020BDE8F08135
:104BD000606C38B13B46324629462046D4F844C082
:104BE000E047F3E76FF0050002F028F80020EDE75A
:104BF0007C8A000864657620213D2052545F4E5522
:104C00004C4C000072745F6F626A6563745F676525
:104C1000745F7479706528266465762D3E706172C4
:104C2000656E7429203D3D2052545F4F626A656372
:104C3000745F436C6173735F4465766963650000FC
:104C400070B504460D46164614B94FF0FF3070BDDE
:104C50002846FFF7B5FE10B14FF0FF30F7E72A46C0
:104C60000821204601F07EFA6685002084F82E0097
:104C7000A08500BFEBE7000070B504460D462CB9D7
:104C800040F2C112084909A0FFF7BEFA204601F020
:104C90004FFA082805D04FF4E172034907A0FFF747
:104CA000B3FA2563002070BDAD8A000864657620E4
:104CB000213D2052545F4E554C4C000072745F6F82
:104CC000626A6563745F6765745F747970652826CE
:104CD0006465762D3E706172656E7429203D3D20BD
:104CE00052545F4F626A6563745F436C6173735FB4
:104CF00044657669636500002DE9F04104460D4680
:104D000016461F462CB94FF4C372144914A0FFF77E
:104D10007BFA204601F00CFA082805D040F28712F1
:104D20000E4913A0FFF770FA94F82E0030B94FF037
:104D3000FF3001F083FF0020BDE8F081A06C38B1A6
:104D40003B46324629462046D4F848C0E047F3E7C0
:104D50006FF0050001F072FF0020EDE78B8A00087C
:104D600064657620213D2052545F4E554C4C000026
:104D700072745F6F626A6563745F6765745F74798C
:104D8000706528266465762D3E706172656E7429A3
:104D9000203D3D2052545F4F626A6563745F436CEF
:104DA0006173735F446576696365000010B50446FE
:104DB0002046FDF78FFF10BD70B506460D46346ED8
:104DC0002CB94FF4BC72134913A0FFF71DFA3046FB
:104DD000FFF7ECFFA84205D240F279120D4913A06B
:104DE000FFF712FAA06810B10DB10020A060E088B2
:104DF0002844E080E188F06DC0F38F20814208DB19
:104E0000E188F06DC0F38F2091FBF0F200FB1210EF
:104E1000E08070BDDA93000872785F6669666F2083
:104E2000213D2052545F4E554C4C00006C656E2065
:104E30003C3D2072745F646D615F63616C635F729F
:104E400065637665645F6C656E2873657269616C15
:104E50002900000070B505460E462C6E2CB94FF4A3
:104E6000C772234923A0FFF7CFF9E088A1888842C1
:104E700018DCA0883044A080A188E86DC0F38F20A2
:104E8000814227DBA188E86DC0F38F2091FBF0F20F
:104E900000FB1210A080A088E18888421ADB012064
:104EA000A06017E0A0883044A080A088E1888842F4
:104EB00010DBA188E86DC0F38F20814208DBA18858
:104EC000E86DC0F38F2091FBF0F200FB1210A08080
:104ED0000120A060A068012801D1A088E080E188BD
:104EE000E86DC0F38F20814201DB0020E08070BDBF
:104EF000F793000872785F6669666F20213D205243
:104F0000545F4E554C4C000010B5FBF79FF904461A
:104F100004480088401C00B2024908802046FBF784
:104F200099F910BD1C01002010B5FBF78FF904465C
:104F30000B480088401E00B2094908800846B0F9B5
:104F40000000002807DC002008802046FBF782F9DB
:104F500001F064F902E02046FBF77CF910BD000087
:104F60001C01002070B5054605B970BD00BFFBF7F8
:104F70006DF9064600F038FC48B1404940A000F009
:104F80009FFC4FF407723D4947A0FFF73DF93046BB
:104F9000FBF760F900BF05F0030028B140F21E22C4
:104FA000364942A0FFF730F94D480068854203D3E7
:104FB0004C480068854205D340F21F222F494A48D9
:104FC000FFF722F900BF4948006818B12846474951
:104FD0000968884700BF42480068854203D34148BA
:104FE0000068854202D300BF00BFBEE7A5F10C04F4
:104FF00000BF00BF4FF0FF313D4801F057FA608815
:1050000018B12088B0F5F55F08D03AA000F058FC40
:105010002388628821463EA000F052FC608828B9AF
:1050200040F23E22154946A0FFF7EEF82088B0F581
:10503000F55F05D040F23F22104944A0FFF7E4F8A5
:10504000002060804FF4F55020804748006884427B
:1050500001D245480460224960680968611A401A13
:1050600042490968081A414908602046FEF758FF7E
:105070001F4801F0D3F900BF77E700004D8E00080C
:1050800046756E6374696F6E5B25735D207368612E
:105090006C6C206E6F742062652075736564206986
:1050A0006E204953520A0000300000002828287260
:1050B000745F75696E7433325F7429726D656D2922
:1050C0002026202852545F414C49474E5F53495A8D
:1050D00045202D20312929203D3D203000000000B1
:1050E000580000205C000020489500085400002073
:1050F000C0040020746F20667265652061206261C3
:1051000064206461746120626C6F636B3A0A000012
:105110006D656D3A203078253038782C20757365B0
:105120006420666C61673A2025642C206D61676994
:105130006320636F64653A203078253034780A0044
:105140006D656D2D3E757365640000006D656D2D98
:105150003E6D61676963203D3D20484541505F4D8C
:105160004147494300000000600000206800002023
:1051700070B5FBF751FFFCF7C3FC1A4800684FF409
:105180007A72B0FBF2F1481EB0F1807F00D31BE0D1
:10519000481E4FF0E022506150170F22002807DA16
:1051A00013071D0E104B00F00F04241F1D5503E0C4
:1051B00013071C0E0D4B1C5400BF00204FF0E022C3
:1051C00090610720106100BFFEF772FB00F074FAD7
:1051D000FFF75EF906A0FFF77DF90749074801F0E0
:1051E0002BFE70BD0000002018ED00E000E400E0A0
:1051F000756172743100000000000120980F0020DA
:105200007047000070B505462C1D3048006838B165
:1052100028462E4909688847064606B970BD00BF72
:105220002BA0E16B00F04CFB2DA0216A00F048FBA5
:105230002FA0616A00F044FB31A0A16A00F040FB9E
:1052400033A0E16A00F03CFB35A0216800F038FB98
:1052500037A0616800F034FB39A0A16800F030FB92
:105260003BA0E16800F02CFB3DA0216900F028FB89
:105270003FA0616900F024FB41A0A16900F020FB80
:1052800043A0E16900F01CFB45A0216B00F018FB76
:1052900047A0616B00F014FB49A0A16B00F010FB6C
:1052A000287800F0040048B102F00AF906463146B9
:1052B00047A000F005FBFEF7C9FB02E04CA000F0A0
:1052C000FFFAFEF7A5FA00BFFEE70000300000205D
:1052D0007073723A203078253038780A0000000068
:1052E0007230303A203078253038780A00000000DB
:1052F0007230313A203078253038780A00000000CA
:105300007230323A203078253038780A00000000B8
:105310007230333A203078253038780A00000000A7
:105320007230343A203078253038780A0000000096
:105330007230353A203078253038780A0000000085
:105340007230363A203078253038780A0000000074
:105350007230373A203078253038780A0000000063
:105360007230383A203078253038780A0000000052
:105370007230393A203078253038780A0000000041
:105380007231303A203078253038780A0000000039
:105390007231313A203078253038780A0000000028
:1053A0007231323A203078253038780A0000000017
:1053B000206C723A203078253038780A00000000DE
:1053C0002070633A203078253038780A00000000D9
:1053D00068617264206661756C74206F6E207468F9
:1053E000726561643A2025730D0A0D0A0000000001
:1053F00068617264206661756C74206F6E206861EC
:105400006E646C65720D0A0D0A0000002DE9FE4302
:1054100005460E46F0B2012806D002285FD00328C8
:1054200079D004285AD15FE04FF0FF372C6E2CB9A9
:1054300040F26B42574958A0FEF7E6FE2CE0686D3B
:10544000C168284688470746781C00B925E0FAF766
:10545000FDFE8146A28821688F54A088401CA08050
:10546000A188E86DC0F38F20814201DB0020A0807D
:10547000A088E18888420CD1E088401CE0800120AF
:10548000A060E188E86DC0F38F20814201DB00203D
:10549000E0804846FAF7DEFED1E700BF286BE8B1AE
:1054A000FAF7D4FE8146A088E188884203DBA08811
:1054B000E188401A06E0E088A188411AE86DC0F34F
:1054C0008F20401A80464846FAF7C4FEB8F1000F14
:1054D00003D0414628462A6B904700BF56E06C6EC9
:1054E0002046FEF7DDFE51E06C6E002301AA6946FE
:1054F000201DFFF77BF801AA02A9201DFFF736F84F
:1055000050B901202060686D022307692846DDE953
:105510000121B84702E008E000202060686B18B164
:105520006A6B28460099904730E03712E86DC0F367
:105530008F20B0B92C6E2CB940F2C94215491BA07E
:10554000FEF762FE286B28B940F2CB4211491CA03D
:10555000FEF75AFE394628462A6B90470020206005
:1055600013E0FAF773FE804639462846FFF772FCCF
:105570002846FFF71BFC07464046FAF76BFE286BF0
:1055800018B1394628462A6B904700BF00BFBDE8D6
:10559000FE8300009894000872785F6669666F2049
:1055A000213D2052545F4E554C4C000072785F6490
:1055B0006D6120213D2052545F4E554C4C0000003F
:1055C00073657269616C2D3E706172656E742E72C6
:1055D000785F696E64696361746520213D2052546F
:1055E0005F4E554C4C0000002DE9F04704468846BC
:1055F00016461F462CB940F23F42104910A0FEF754
:1056000003FE2546002085F82800286368631148BA
:10561000A8631148E8631148286411486864114878
:10562000A8641148E8642F65B2B241462846FFF7E6
:1056300007FB81464846BDE8F087000082940008D9
:1056400073657269616C20213D2052545F4E554C48
:105650004C0000007D680008C5680008516600081D
:10566000656B0008D16B0008D5670008F0B50446EB
:105670000D461646301D20F0070040380146002236
:1056800003E00C4F41F82270521C102AF9D30D622E
:105690004FF0000CC1F824C0C1F828C0C1F82CC0DC
:1056A000C1F830C04B638C634FF0807CC1F83CC0C4
:1056B000F0BD0000EFBEADDE2DE9FC410126324910
:1056C00003C9CDE90001002502F0D0FF002456E017
:1056D0002E4800EB0410C4EB44112D4A02EBC1012B
:1056E00008642C49C4EB441002EBC000C0F8E4107D
:1056F000C4EB4410114601EBC0009030DDE900120C
:10570000C0E91612C4EB4410214901EBC00090F827
:105710008C00B0B1C4EB44120F4607EBC203C4EBDC
:10572000441207EBC202126C1168C4EB441207EB7F
:10573000C20202F1900040F20332FFF755FF054626
:1057400015E0C4EB4412124F07EBC203C4EB441242
:1057500007EBC202126C1168C4EB441207EBC202E1
:1057600002F1900040F20312FFF73EFF05462DB113
:1057700040F25F22084909A0FEF746FD641CB442CE
:10578000A6D32846BDE8FC81FC890008080000205B
:105790007C01002058890008E9890008726573754A
:1057A0006C74203D3D2052545F454F4B000000007B
:1057B00010B500BF00BFFAF749FD0446084800785D
:1057C000401C0749087000BF0648006810B1054832
:1057D0000068804700BF2046FAF73CFD10BD00007E
:1057E0004000002038000020014800787047000089
:1057F0004000002010B500BF00BFFAF727FD0446A7
:1058000008480078401E0749087000BF0648006835
:1058100010B105480068804700BF2046FAF71AFD1E
:1058200010BD0000400000203C00002070B5044680
:105830002068A0F1280500BF00BF284601F0F4FD54
:10584000002070BD2DE9F04105460C4690462046EB
:1058500001F0DCFEB8F1000F03D0B8F1010F23D145
:1058600005E004F12801284600F082F81CE02E68CB
:105870000FE0A6F1280794F8490097F849108842EC
:1058800006DA04F1280107F1280000F071F802E0BF
:105890003668AE42EDD100BFAE4204D104F128011A
:1058A000284600F065F800BF00BF0020BDE8F08189
:1058B00010B5044604F1280000F036F8002010BDB1
:1058C0000FB438B505A800907F211548009B049AB5
:1058D00002F07AFA04467F2C00D97F241148006830
:1058E00018B90F48FFF78CFC15E00E480068858D4D
:1058F0000C480068808D40F040000A49096888859E
:105900002346074A002107480068FFF7F5F90548D4
:105910000068858500BF0020009038BC5DF814FB4E
:105920004004002048000020406000607047406054
:1059300000607047406000607047406000607047E2
:105940004060006070470268516002680A60016050
:10595000486070470268516002680A6001604860F0
:1059600070470268516002680A60016048607047D1
:105970004268116042684A6041600860704742684E
:10598000116042684A6041600860704701460868DB
:10599000884201D1012070470020FCE701460868D9
:1059A000884201D1012070470020FCE701460868C9
:1059B000884201D1012070470020FCE701460868B9
:1059C000884201D1012070470020FCE701460868A9
:1059D000884201D1012070470020FCE701460020E9
:1059E0000A4601E01268401C13688B42FAD17047E6
:1059F000D0E900215160D0E90012116040600060E0
:105A00007047D0E900215160D0E900121160406078
:105A1000006070472DE9F047054615B90020BDE844
:105A2000F08700BFFAF712FC8146FFF7DDFE48B1B0
:105A30007B497CA0FFF744FF40F20B12784983A01A
:105A4000FEF7E2FB4846FAF705FC00BFE81C20F031
:105A50000300A84201D000BF01E000BF00BFE81C66
:105A600020F003057A480068854203D900BF00BFD3
:105A70000020D4E70C2D00D20C254FF0FF317548E3
:105A800000F014FD7448006874490968461ABBE0C8
:105A9000724800688419608800287BD106F10C00E8
:105AA0006168081AA84275D306F10C006168091AEA
:105AB00005F11800814230D306F10C0000EB050817
:105AC0006648006800EB08074FF4F5503880002066
:105AD000788060687860BE60C4F8048001206080CF
:105AE0005B48796800680C30814205D05B49786872
:105AF00009680844C0F808805948016805F10C009D
:105B0000084457490860574800680968884219D214
:105B1000534800685349086014E0012060804F49F1
:105B200060680968611A401A4D49096808444C497F
:105B300008604C4800680968884203D248480068F9
:105B4000484908604FF4F55020804348006884427B
:105B500024D107E04048006840684049096808448B
:105B60003D4908603C480068408828B13A480068D0
:105B70003D4909688842EDD1374800683A490968CB
:105B800088420BD034480068408838B140F2751222
:105B9000234900E034E035A0FEF736FB2D4800F045
:105BA0003DFC04F10C0028442F490968884205D9BE
:105BB00040F279121A493748FEF726FB04F0030039
:105BC00028B14FF4BD7216493348FEF71DFB04F0AF
:105BD000030028B140F27B12114930A0FEF714FBFC
:105BE00000BF00BF00BF3948006828B1294604F152
:105BF0000C00364A1268904700BF04F10C000EE713
:105C0000164800683044466811480068401BB0429E
:105C10003FF63EAF0F4800F001FC0020FFE6000019
:105C2000388E000846756E6374696F6E5B25735D10
:105C3000207368616C6C206E6F74206265207573D0
:105C4000656420696E204953520A0000300000004C
:105C500064000020C00400206000002058000020E4
:105C6000680000206C0000205C00002028286C6682
:105C7000726565203D3D20686561705F656E6429D1
:105C8000207C7C2028216C667265652D3E757365CD
:105C900064292900A4950008FC940008282828728B
:105CA000745F75696E7433325F74296D656D292078
:105CB00026202852545F414C49474E5F53495A456C
:105CC000202D20312929203D3D203000500000208A
:105CD0002DE9F0410F46164604463D463346102B4B
:105CE00028D305F0030C04F003084CEA080CBCF1BF
:105CF000000F1FD121462A4610E052F804CB41F88C
:105D000004CB52F804CB41F804CB52F804CB41F851
:105D100004CB52F804CB41F804CB103B102BECD24F
:105D200004E052F804CB41F804CB1B1F042BF8D23B
:105D30000C46154603E015F801CB04F801CBB3F18E
:105D4000000CA3F10103F6D1BDE8F08170B50C465B
:105D5000014623468B4210D29D188D420DD9114425
:105D6000134405E05D1E2B462E784D1E29462E70ED
:105D7000151EA2F10102F5D108E003E013F8015B62
:105D800001F8015B151EA2F10102F7D170BDF0B55B
:105D90000C460546E6B2042A15D300F0030797B96E
:105DA000014646EA062343EA034304E008C108C16A
:105DB00008C108C1103A102AF8D201E008C1121F28
:105DC000042AFBD20D4601E005F8016B171EA2F173
:105DD0000102F9D1F0BD00002DE9F0478146884667
:105DE000154600BFFAF732FA8246FFF7FDFC40B1D4
:105DF000254926A0FFF764FDC12223492DA0FEF707
:105E000003FA5046FAF726FA00BF4946072000F089
:105E100087F8044614B90020BDE8F087E81C20F09C
:105E200003052563281D00FB08F0E062291D01FB26
:105E300008F0FFF7EFFDA062A06A20B9204600F04D
:105E4000E5F80020E8E7C4F83880A06BE06304F1CF
:105E50004000FFF76CFD0020A064A76A002607E061
:105E6000701C291D00FB0171281D70433950761CE0
:105E7000A06BB042F4D80022701E291D48433A504E
:105E800067632046C8E700006D8E000846756E63A4
:105E900074696F6E5B25735D207368616C6C206E36
:105EA0006F74206265207573656420696E204953A4
:105EB000520A0000300000002DE9F04105462E1F77
:105EC000346800BF1548006820B129462046134AAF
:105ED0001268904700BFFAF7B9F98046E06B401CA2
:105EE000E063606B30606663A06C88B1206CA0F1E9
:105EF000280700207864384601F096FAA06C401E0E
:105F0000A0644046FAF7A6F900F088F9BDE8F081F0
:105F10004046FAF79FF900BFF8E700007400002040
:105F20002DE9F04706460F4600BFFAF78FF9814684
:105F3000FFF75AFC48B1224922A0FFF7C1FC4FF4F9
:105F4000A4721F4929A0FEF75FF94846FAF782F9C3
:105F500000BF304600F0D8F805462DB94FF4A672C0
:105F6000174923A0FEF750F9E868FFF753FD0446F0
:105F700014B90020BDE8F08700212046EA68FFF749
:105F800006FFA6770020E0771E223946204600F063
:105F900038FF00BF1C48006818B120461A4909683C
:105FA000884700BFFAF752F9804604F12001281D06
:105FB000FFF7C9FC4046FAF74DF92046DAE7000042
:105FC000B38E000846756E6374696F6E5B25735DF2
:105FD000207368616C6C206E6F742062652075732D
:105FE000656420696E204953520A000030000000A9
:105FF000696E666F726D6174696F6E20213D20520B
:10600000545F4E554C4C00000801002070B504460A
:106010002CB94FF4C372134913A0FEF7F5F8A07F13
:1060200000F0800028B140F287120E4913A0FEF75D
:10603000EBF800BF1C48006818B120461A490968EF
:10604000884700BF0020A077FAF700F9054604F161
:106050002000FFF7CDFC2846FAF7FCF82046FEF7B3
:1060600081FF70BDC68E00086F626A65637420216F
:106070003D2052545F4E554C4C00000021286F6269
:106080006A6563742D3E7479706520262052545FD2
:106090004F626A6563745F436C6173735F537461CD
:1060A00074696329000000000C01002070B50446EB
:1060B0002CB940F225120D490DA0FEF7A5F800BF3E
:1060C0001048006818B120460E490968884700BF8B
:1060D0000020A077FAF7BAF8054604F12000FFF790
:1060E00087FC2846FAF7B6F870BD0000A28E0008BB
:1060F0006F626A65637420213D2052545F4E554C97
:106100004C0000000C010020024600210AE0074874
:1061100000EB01100078904203D1044800EB01101D
:106120007047491C0929F2DB0020F9E778000020BC
:1061300010B504462CB940F2BB12044904A0FEF786
:1061400063F8A07F20F0800010BD0000F18E0008F1
:106150006F626A65637420213D2052545F4E554C36
:106160004C0000002DE9F04104460D461646284635
:10617000FFF7CAFF074627B9FA22114911A0FEF717
:1061800043F845F08000A0771E223146204600F0FB
:1061900038FE00BF1148006818B120460F49096851
:1061A000884700BFFAF752F8804604F12001381DF5
:1061B000FFF7C9FB4046FAF74DF8BDE8F081000053
:1061C000938E0008696E666F726D6174696F6E20E0
:1061D000213D2052545F4E554C4C000008010020D8
:1061E00010B504462CB94FF4D472064906A0FEF748
:1061F0000BF8A07F00F0800008B1012010BD002046
:10620000FCE70000D78E00086F626A656374202186
:106210003D2052545F4E554C4C0000002DE9F0419A
:10622000FAF714F8074625480088002841D1244889
:106230000068FBF72DFE461E224850F83600A0F1FC
:1062400028042148006884422FD020490E701E483F
:106250000568046000BF1E48006820B1214628463A
:106260001B4A1268904700BF00BF00BF2046FCF7E2
:106270002DFB1848007860B904F1300105F13000B9
:10628000F9F7EBFF3846F9F7E5FF012000F08FFF43
:106290000EE000BF00BF04F1300105F13000F9F756
:1062A000DCFF3846F9F7D6FF02E03846F9F7D2FFAF
:1062B00002E03846F9F7CEFFBDE8F0811C0100206E
:1062C00028010020F40400202001002024010020E7
:1062D000340100204000002070B504462CB94FF472
:1062E0008E72144914A0FDF78FFFF9F7AFFF054632
:1062F00014F8480F20F00F0040F001002070627881
:10630000483C124B03EBC20004F1280142681160C3
:1063100042684A604160086000BF00BF00BF0C498E
:10632000E06C096808430A4908602846F9F792FFBB
:1063300070BD00002D8F00087468726561642021B3
:106340003D2052545F4E554C4C000000F404002098
:106350002801002070B504462CB94FF4A5721549E8
:1063600015A0FDF751FFF9F771FF054600BF00BF0B
:1063700004F12800D0E900215160D0E90012116039
:106380004060006000BF94F84910104A02EBC10061
:106390000168814201D1012100E0002129B10C48AE
:1063A000E16C006888430A4908602846F9F752FF03
:1063B00070BD0000478F0008746872656164202119
:1063C0003D2052545F4E554C4C000000F404002018
:1063D000280100202DE9F04104460D4616461F46CF
:1063E00024B9CA22084909A0FDF70EFF2A46012157
:1063F0002046FFF7B7FE2046FFF75AFA2686E777D2
:106400000020BDE8F0810000F78A000873656D2068
:10641000213D2052545F4E554C4C000070B504464F
:106420002CB940F2B3121A491AA0FDF7EDFE20462E
:10643000FFF77EFE012805D04FF4DA72144919489F
:10644000FDF7E2FE00BF1848006818B12046164963
:106450000968884700BF0025F9F7F8FE064600BF27
:1064600000BF04F12800FFF791FA28B904F12800D1
:10647000FFF7DCF9012502E0208E401C2086304623
:10648000F9F7E8FE012D01D1FFF7C8FE002070BD2D
:10649000398B000873656D20213D2052545F4E55A5
:1064A0004C4C0000B4940008180100202DE9F34181
:1064B00005462DB94FF4A372444945A0FDF7A4FE4B
:1064C0002846FFF735FE012805D040F247123F4924
:1064D0004348FDF799FE00BF4248006818B12846BE
:1064E00040490968884700BFF9F7B0FE064600BF7B
:1064F00000BF288E002806DD288E401E28863046E4
:10650000F9F7A8FE57E0019830B93046F9F7A2FE36
:106510006FF00100BDE8FC8100BFF9F797FE074668
:1065200000F0CEFF48B929492FA0FFF7C9F940F282
:10653000671226493AA0FDF767FE00BFF9F786FE0D
:106540008046FFF751F948B1204936A0FFF7B8F966
:1065500040F267121D4932A0FDF756FE4046F9F79A
:1065600079FE00BF3846F9F775FE00BF00F0A8FFBE
:1065700004460020606400BF00BFEA7F214605F1A9
:106580002800FFF75FF9019800280BDD00BF00BF6E
:1065900001AA002104F1740001F0BEF904F17400B5
:1065A00001F0B8FA3046F9F755FEFFF737FE606C98
:1065B00008B1606CAEE700BF2448006818B12846F7
:1065C00022490968884700BF0020A3E72D8B0008F7
:1065D00073656D20213D2052545F4E554C4C000098
:1065E000B49400081001002046756E6374696F6EE4
:1065F0005B25735D207368616C6C206E6F74206224
:10660000652075736564206265666F7265207363CB
:10661000686564756C65722073746172740A000039
:106620003000000046756E6374696F6E5B25735DA4
:10663000207368616C6C206E6F74206265207573C6
:10664000656420696E204953520A0000140100203D
:1066500070B504462CB940F2B622454945A0FDF775
:10666000D3FD254694F82E00012801DD002070BDE1
:10667000A08D00F48070C0B12E6E2EB940F2C12200
:106680003B4940A0FDF7C0FD3046FEF76BFC002003
:106690002866A08D20F48070A085686D4FF480720C
:1066A00011214368284698472DE0A08D00F4007022
:1066B000002828D0E86DC0F38F2058B92E6E2EB96F
:1066C00040F2CF222A4934A0FDF79EFD3046FEF766
:1066D00049FC0BE02E6E2EB940F2D622244929A0A7
:1066E000FDF792FD3046FEF73DFC00BF686D4FF4AC
:1066F0000072112143682846984700202866A08D23
:1067000020F40070A085A08D00F48060C0B16E6E92
:106710002EB940F2E522164924A0FDF775FD30465A
:10672000FEF720FC00206866A08D20F48060A08524
:10673000686D4FF48062112143682846984715E040
:10674000A08D00F4006088B16E6E2EB940F2F22286
:1067500007491BA0FDF758FD3046FEF703FC00205B
:106760006866A08D20F40060A08500BF00207EE751
:106770004194000864657620213D2052545F4E55B7
:106780004C4C000072785F6669666F20213D205294
:10679000545F4E554C4C000072785F646D6120214F
:1067A0003D2052545F4E554C4C00000074785F669B
:1067B00069666F20213D2052545F4E554C4C0000BD
:1067C00074785F646D6120213D2052545F4E554CBA
:1067D0004C0000002DE9F04705460F4616464FF0E5
:1067E00000092DB940F293321F4920A0FDF70CFD9E
:1067F0002C46012F09D0022F02D0032F29D109E006
:10680000688D40F0200068852BE0688D20F0200026
:10681000688526E0E6B1B046D8F80400C0F38F21C1
:10682000E06DC0F38F20814205D094F82E0010B1A6
:106830000720BDE8F087D8E90001C4E9160194F803
:106840002E0020B1606D314602682046904700BF9F
:1068500007E0606D324639464368204698478146D6
:1068600000BF00BF4846E4E77094000864657620E6
:10687000213D2052545F4E554C4C000070B50546EA
:1068800000262DB94FF4077209490AA0FDF7BCFC98
:106890002C46002020666066606D006830B1606D37
:1068A00004F158010268204690470646304670BD04
:1068B0002394000864657620213D2052545F4E5594
:1068C0004C4C00002DE9F04104460E464FF0000804
:1068D0002CB940F22F228A498AA0FDF795FC254663
:1068E00006F4007038B1608D00F4007018B96FF0D4
:1068F0000700BDE8F08106F4006030B1608D00F45F
:10690000006010B96FF00700F3E706F4807030B153
:10691000608D00F4807010B96FF00700E9E706F4AD
:10692000806030B1608D00F4806010B96FF00700B6
:10693000DFE706F0400020B994F82C0000F040009A
:1069400008B14FF04008F0B2A085286E002873D13E
:1069500006F4007000283DD0E86DC0F38F2070B9B8
:106960000420FFF757F807462FB940F24E2264493A
:1069700068A0FDF749FC002038602F6625E0E96D2E
:10698000C1F38F2101F10C00FFF744F807462FB93E
:1069900040F257225A4964A0FDF736FC07F10C007B
:1069A0003860E96DC1F38F2200213868FFF7EFF9F5
:1069B0000020B880F880B8602F66686D4FF40072D0
:1069C000032143682846984700BFA08D40F400701B
:1069D000A08540E006F4807050B3E96DC1F38F21CB
:1069E00001F10C00FFF716F807462FB940F26922B3
:1069F00043494DA0FDF708FC07F10C003860E96D34
:106A0000C1F38F2200213868FFF7C1F90020B88058
:106A1000F880B8602F66A08D40F48070A085686D06
:106A20004FF48072102143682846984713E003E032
:106A3000FFE7002028660EE006F4007020B1A08D6C
:106A400040F40070A08506E006F4807018B1A08DB7
:106A500040F48070A085686E00283CD106F4006088
:106A6000C0B12820FEF7D6FF07462FB940F2892291
:106A7000234932A0FDF7C8FB002038600023042220
:106A80000821381DFDF740FD6F66A08D40F40060C1
:106A9000A0852FE006F48060D0B10C20FEF7BAFF8D
:106AA00007462FB940F29622154929A0FDF7ACFB05
:106AB0003846FDF729FC6F66A08D40F48060A08504
:106AC000686D4FF48062102143682846984711E0B2
:106AD000002068660EE006F4006020B1A08D40F44E
:106AE0000060A08506E006F4806018B1A08D40F437
:106AF0008060A085A08D40EA0800A0850020F8E60F
:106B00003294000864657620213D2052545F4E5532
:106B10004C4C000072785F646D6120213D2052541E
:106B20005F4E554C4C00000072785F6669666F20BE
:106B3000213D2052545F4E554C4C000074785F64E8
:106B40006D6120213D2052545F4E554C4C00000099
:106B500074785F6669666F20213D2052545F4E5500
:106B60004C4C00002DE9F0410446884617461D466E
:106B70002CB940F20332114911A0FDF745FB15B9BC
:106B80000020BDE8F0812646A08D00F4807028B179
:106B90002A4639463046FCF7CFF8F2E7A08D00F4DC
:106BA000007028B12A4639463046FBF79BFFE8E7DC
:106BB0002A4639463046FCF753F9E2E7519400087B
:106BC00064657620213D2052545F4E554C4C0000A8
:106BD0002DE9F0410446884617461D462CB940F27F
:106BE0001B32114911A0FDF70FFB15B90020BDE8BC
:106BF000F0812646A08D00F4806028B12A463946EF
:106C00003046FCF7F5F8F2E7A08D00F4006028B1FB
:106C10002A4639463046FCF72FF8E8E72A46394637
:106C20003046FCF74BF9E2E7609400086465762093
:106C3000213D2052545F4E554C4C000070B5044627
:106C4000FEF7D2FD10B10648046070BD00F038FCBC
:106C5000054615B902480460F7E76C6400BFF4E725
:106C60004400002008B509A0FEF72AFE0AA0FEF79E
:106C700027FE12A001231A460321009012A0FEF75E
:106C80001FFE19A0FEF71CFE08BD00000A205C20B4
:106C90007C202F0A000000002D205254202D20209F
:106CA000202020546872656164204F7065726174A1
:106CB000696E672053797374656D0A0046656220BA
:106CC0003231203230313900202F207C205C2020CE
:106CD00020202025642E25642E2564206275696C91
:106CE000642025730A0000002032303036202D2029
:106CF0003230313820436F7079726967687420626E
:106D0000792072742D746872656164207465616D98
:106D10000A00000070B500BF00BF00F085FD064608
:106D2000FEF7F2F8254805683FE0A5F12804E06B7E
:106D3000301A6FF00041884236D200BF2048006808
:106D400018B120461E490968884700BF2D682046B3
:106D5000FBF7B1FEFEF7E8F8D4E90C10884700F025
:106D600063FD064600BF1748006818B12046154964
:106D70000968884700BF00BF00BFFEF7C5F8E07F85
:106D800000F0020058B1E07F00F0010038B1E07F70
:106D900020F00100E077204600F0BCFE05E0E07F37
:106DA00020F00100E07700E002E004488542BCD119
:106DB00000BFFEF7B9F800BF00BF70BD5001002052
:106DC000580100205C01002001460A4600E0521CE8
:106DD00010780028FBD1501A704730B503460020C8
:106DE0000BE011F8015B1C78641B64B2201E02D119
:106DF00013F8015B05B902E0521E002AF1D100BF71
:106E000030BD70B50346A2B118460C4600BF14F859
:106E1000016B00F8016B3EB902E0002500F8015B50
:106E2000551E2A1EF9D102E0551E2A1EEFD100BFC1
:106E300000BF184670BD00002DE9F04705460E461C
:106E4000E81C20F0030726F0030800BFF9F7FEF95D
:106E50008146FEF7C9FC40B12A492BA0FEF730FD60
:106E6000C522284932A0FDF7CFF94846F9F7F2F9D3
:106E700000BFB8F1180F09D9A8F11800B84205D31E
:106E8000A8EB070018382B49086006E0324629466F
:106E900029A0FEF715FDBDE8F0873648076000BF62
:106EA00000BF04684FF4F5502080224800680C3081
:106EB00060600020A06060802E4960680968084416
:106EC0002D4908604FF4F5500968088001202A49CF
:106ED00009684880174800680C30274909684860ED
:106EE000144800680C302449096888600023012296
:106EF00022A12448FFF76EFA1E4800682249086064
:106F000000BFC8E7248E000846756E6374696F6E13
:106F10005B25735D207368616C6C206E6F742062FA
:106F200065207573656420696E204953520A00001C
:106F300030000000640000206D656D20696E69748A
:106F40002C206572726F7220626567696E206164C1
:106F5000647265737320307825782C20616E64200C
:106F6000656E64206164647265737320307825787F
:106F70000A000000580000205C0000206865617075
:106F800000000000C00400206000002010B50020B8
:106F90000C49088000BF00BF002405E00A4901EB4E
:106FA000C400FEF7C7FC641C202CF7DB1F20074938
:106FB0000870002006490860064908600648FEF788
:106FC000B9FC10BD1C010020F404002024010020A5
:106FD00020010020280100202C01002070B5084865
:106FE0000068FAF755FF451E064850F83500A0F135
:106FF00028040548046004F13000F9F75CF970BD1D
:1070000028010020F40400202001002010B50C22EB
:10701000202108A0FEF7E0FE084908600846006845
:1070200028B94FF4F072064906A0FDF7EDF80020EC
:1070300010BD00007369676E616C000038010020AC
:10704000938F00083000000010B5002405E00449CB
:1070500001EBC400FEF771FC641C002CF7D010BDDE
:10706000480100201FB5002405E00D4901EBC400D4
:10707000FEF763FC641C002CF7D00A2000214FF4BB
:107080000072084BCDE90032CDE902100B46064AEA
:1070900006A1084800F080F9064800F057FA1FBD25
:1070A00050010020B00600206177000874696D650A
:1070B00072000000F40500202DE9FF5F06460F4630
:1070C00090461D46DDE90EAB31460020FEF728FF55
:1070D0008146B9F1000F03D1002004B0BDE8F09F54
:1070E0002846FEF797FC044624B94846FEF78EFF73
:1070F0000020F2E743463A46314648468DE8300CD8
:10710000FBF74AFC4846E8E710B50446204600F085
:10711000DDF910BD70B513480468F9F797F8054616
:107120002046FFF717F9042084F8480004F17400A2
:1071300000F04EFC2046FFF753F8012806D1D4F8A2
:10714000B40018B92046FEF7B1FF04E004F12801AD
:107150000548FEF7FFFB2846F9F77CF8FFF75EF8D5
:1071600070BD0000200100202C0100202DE9F04717
:107170000446F9F76BF88146A66E0020A066676E9C
:1071800060664846F9F766F85EB106F1080500BF8B
:10719000A5F108084046FEF78FFE2D68002DF7D1B7
:1071A00000BF17B13846FDF7DDFEBDE8F0872DE9D9
:1071B000F047804600F084F90446F9F747F8824624
:1071C000D4E91601084000283AD094F8480000F0AD
:1071D0002000002834D124E0A56E05B926E0A86877
:1071E00010B90020A06602E0A8680838A0662E88C2
:1071F000606E50F826705046F9F72CF80FB1304603
:10720000B847F9F723F882460121B140A06D8843C1
:10721000A0656FF008092846FEF74EFEC4F84490BA
:1072200000BFD4E9160108400028D5D100BFB8F14D
:10723000010F05D194F8480020F0100084F84800B0
:107240005046F9F707F8BDE8F08700000EE000248B
:1072500008E0074850F8240018B1054951F8240007
:107260008047641C042CF4D300F004F8EFE700001E
:107270003004002070B550E000BFF8F7E7FF064685
:10728000FEF7B2FA40B1284928A0FEF719FB99226F
:10729000254930A0FCF7B8FF3046F8F7DBFF00BF08
:1072A000F8F7D4FF0546FAF719FE40B32A480068FC
:1072B000A0F1280404F12800D0E900215160D0E9B0
:1072C000001211604060006000BFFDF71DFED4F8A1
:1072D000B40018B12046D4F8B41088472046FFF710
:1072E00045FF2046FEF77CFF012805D1FDF71CFE77
:1072F0002846F8F7AFFF70BDFDF716FE03E02846FD
:10730000F8F7A8FFF7E72846F8F7A4FFE06BFDF7CA
:1073100029FE2046FEF77AFE00BFFAF7DFFD0028BF
:10732000AAD100BFE7E70000E18A000846756E6356
:1073300074696F6E5B25735D207368616C6C206E81
:107340006F74206265207573656420696E204953EF
:10735000520A0000300000002C0100201FB5202040
:107360001F21C200074BCDE90032CDE902100023F6
:10737000054A06A1074800F00FF8064800F0E6F8B5
:107380001FBD0000300300204D7200087469646C5A
:1073900065000000740200202DE9FF5F04460D46E1
:1073A000174698460EAE96E8400E24B9E6220D49DF
:1073B0000DA0FCF729FF26B9E7220A490FA0FCF728
:1073C00023FF2A4600212046FEF7CCFE43463A46DC
:1073D000294620468DE8400EFBF7DEFA04B0BDE8F2
:1073E000F09F0000B98F0008746872656164202105
:1073F0003D2052545F4E554C4C0000007374616345
:107400006B5F737461727420213D2052545F4E553E
:107410004C4C000070B50446204600F0F5F90546D6
:10742000284600F053F870BD70B504462CB940F200
:10743000B6221B491BA0FCF7E7FE2046FEF778FEAC
:1074400028B140F2B72216491B48FCF7DDFE00BF09
:1074500000BF94F8480000F00F00022804D000BFDD
:1074600000BF4FF0FF3070BDF8F7F0FE054604F1A5
:107470002800FEF7C6FA04F1740000F045FC284627
:10748000F8F7E8FE2046FEF727FF00BF0B4800682C
:1074900018B1204609490968884700BF0020E2E783
:1074A0003090000874687265616420213D20525458
:1074B0005F4E554C4C000000EC9500084001002048
:1074C00001480068704700002001002031B5F8F73E
:1074D000BDFE0546154804682CB940F2F712144960
:1074E00014A0FCF791FE2046FEF722FE28B14FF4CF
:1074F000FC720F491448FCF787FE204600F086F81E
:107500006A46002104F1740000F006FA04F17400E8
:1075100000F000FB2846F8F79DFEFEF77FFE606C4A
:10752000801C08B900206064002038BD20010020C4
:10753000FC8F000874687265616420213D205254FC
:107540005F4E554C4C000000EC95000810B5044609
:107550002CB94FF48672184918A0FCF755FE94F820
:10756000480000F00F0028B140F20D12124918A097
:10757000FCF74AFE2046FEF7DBFD28B14FF4877288
:107580000D492148FCF740FE94F84A0084F8490070
:1075900094F8491001208840E06400BF00BF022039
:1075A00084F848002046FFF73FFFFFF789FF08B146
:1075B000FEF734FE002010BDC88F000874687265A5
:1075C000616420213D2052545F4E554C4C00000018
:1075D000287468726561642D3E737461742026207E
:1075E00052545F5448524541445F535441545F4D97
:1075F00041534B29203D3D2052545F544852454150
:10760000445F494E49540000EC95000870B50446AB
:107610002CB940F28B221D491DA0FCF7F5FD204638
:10762000FEF786FD28B14FF4237218491D48FCF778
:10763000EBFD00BF00BF94F8480000F00F000128E8
:1076400004D000BF00BF4FF0FF3070BDF8F7FEFD63
:10765000054694F8480020F00F0040F0020084F83E
:1076600048002046FEF776FE04F1740000F04CFB63
:107670002846F8F7EFFD00BF0B48006818B1204618
:1076800009490968884700BF0020DEE71E9000080E
:1076900074687265616420213D2052545F4E554CE0
:1076A0004C000000EC9500083C01002070B5054638
:1076B0002C462CB940F2E322134914A0FCF7A4FD98
:1076C00094F8480000F00F00022805D04FF43972FA
:1076D0000D4913A0FCF798FD2046FEF729FD28B1BF
:1076E00040F2E52208491D48FCF78EFD6FF00100CD
:1076F000606404F12800FEF784F92046FEF7ECFDF3
:10770000FEF78CFD70BD0000419000087468726542
:10771000616420213D2052545F4E554C4C000000C6
:10772000287468726561642D3E737461742026202C
:1077300052545F5448524541445F535441545F4D45
:1077400041534B29203D3D2052545F5448524541FE
:10775000445F53555350454E44000000EC950008DB
:107760001CE00F4800F0C8F90446601C38B9FFF768
:10777000A7FE0546FFF74AFFFEF750FD0CE000F0BC
:1077800053F80546601B6FF00041884203D2641B2A
:107790002046FFF7B9FC00BFFFF7BCFAE1E70000A5
:1077A0005001002070B5F8F751FD054614480468F3
:1077B00094F8480000F00F0001281CD1D4E90A1009
:1077C000814218D004F12800FEF71BF994F84920F3
:1077D0000C4B03EBC20004F12801426811604268BF
:1077E0004A604160086000BF2846F8F733FDFEF7A5
:1077F00015FD002070BD2846F8F72CFD0020F9E7A4
:1078000020010020F40400200146002902DA4FF094
:10781000FF3008E04FF47A724A4302F2E7324FF445
:107820007A7392FBF3F070470148006870470000DC
:107830003400002010B50A480068401C0849086060
:10784000FFF73EFE0446206F401E2067206F18B9E8
:10785000E06E2067FFF7A6FF00F004F810BD0000FF
:107860003400002070B500BF00BFFFF7DDFF054604
:10787000F8F7ECFC06463CE024480068A0F1280438
:10788000E06B281A6FF00041884231D200BF2048D7
:10789000006818B120461E490968884700BF204685
:1078A000FBF709F9D4E90C108847FFF7BDFF05463F
:1078B00000BF1848006818B1204616490968884773
:1078C00000BF00BF00BFE07F00F0020058B1E07FC2
:1078D00000F0010038B1E07F20F00100E0772046A1
:1078E00000F018F905E0E07F20F00100E07700E00B
:1078F00004E00648FEF752F80028BDD000BF30462D
:10790000F8F7A8FC00BF00BF70BD000048010020D0
:10791000580100205C01002070B504460E46154653
:107920002CB94FF4E772154915A0FCF76DFC204601
:10793000FEF7FEFB092805D040F2CF120F4915A033
:10794000FCF762FC4EB1012E04D0022E08D0032EAB
:1079500010D10AE0A06B28600CE02868A06309E061
:10796000E07F20F00200E07704E0E07F40F00200DA
:10797000E07700BF00BF002070BD0000AD900008A0
:1079800074696D657220213D2052545F4E554C4CF8
:107990000000000072745F6F626A6563745F676500
:1079A000745F74797065282674696D65722D3E70F8
:1079B0006172656E7429203D3D2052545F4F626AAA
:1079C0006563745F436C6173735F54696D657200C6
:1079D00070B5044624B9CF22124913A0FCF714FC59
:1079E0002046FEF7A5FB092804D0D0220D4913A09C
:1079F000FCF70AFC2046FEF7F3FB20B9D122094927
:107A00001DA0FCF701FCF8F721FC05462046FBF71A
:107A100052F82846F8F71EFC2046FEF747FB0020E8
:107A200070BD00007090000874696D657220213D82
:107A30002052545F4E554C4C0000000072745F6F32
:107A4000626A6563745F6765745F74797065282620
:107A500074696D65722D3E706172656E7429203D8A
:107A60003D2052545F4F626A6563745F436C61737B
:107A7000735F54696D65720072745F6F626A6563EB
:107A8000745F69735F73797374656D6F626A656340
:107A900074282674696D65722D3E706172656E740E
:107AA000290000002DE9F84304460D4616461F46FE
:107AB000DDE9088924B9BA2209490AA0FCF7A4FB28
:107AC0002A4609212046FEF74DFB43463A463146F9
:107AD0002046CDF80090FAF7CDFFBDE8F88300000E
:107AE0006290000874696D657220213D2052545FD8
:107AF0004E554C4C0000000070B504462046FDF782
:107B00004DFF10B14FF0FF3070BD2068A0F1280587
:107B1000E86BF9E72DE9F84305462DB94FF4997262
:107B2000564957A0FCF770FB2846FEF701FB0928D1
:107B300005D040F23312514956A0FCF765FBF8F727
:107B400085FB80462846FAF7B6FFE87F20F0010063
:107B5000E8774046F8F77EFB00BF5D48006818B143
:107B600028465B490968884700BF6FF00041A86B51
:107B7000884205D340F24312404956A0FCF744FB2B
:107B8000FFF752FEA96B0844E863F8F75FFB8046F5
:107B9000E87F00F0040008B1574E00E0574E009611
:107BA00000242AE019E05DF824201168282202EB65
:107BB000C402881AC26BEB6BD21A00D108E0C26B08
:107BC000EB6BD21A6FF000439A4200D20CE000BF78
:107BD0005DF8240000684DF824005DF8240006EBF1
:107BE000C40149688842DED100BF2CB15DF8240091
:107BF0000830611C4DF82100641C002CD2D0404894
:107C00000068401C3E4908600846076805F12801E5
:107C10000098FDF7A6FE022412E007F0030060B909
:107C2000C4F1010305F1280202EBC301C4F1010212
:107C30005DF82200FDF795FE00E003E0BF08641C3C
:107C4000012CEAD900BFE87F40F00100E877404608
:107C5000F8F700FBE87F00F0040058B1294890F8DD
:107C6000480000F00F00012804D02648FFF7DCFB95
:107C7000FEF7D4FA0020BDE8F883000090900008D9
:107C800074696D657220213D2052545F4E554C4CF5
:107C90000000000072745F6F626A6563745F6765FD
:107CA000745F74797065282674696D65722D3E70F5
:107CB0006172656E7429203D3D2052545F4F626AA7
:107CC0006563745F436C6173735F54696D657200C3
:107CD0001401002074696D65722D3E696E69745FD0
:107CE0007469636B203C2052545F5449434B5F4D91
:107CF0004158202F20320000500100204801002070
:107D000060010020F405002070B504462CB940F253
:107D1000AB12174917A0FCF777FA2046FEF708FACE
:107D2000092805D04FF4D672114917A0FCF76CFA58
:107D3000E07F00F0010010B94FF0FF3070BD00BFD0
:107D40002048006818B120461E490968884700BFCE
:107D5000F8F77CFA05462046FAF7ADFE2846F8F714
:107D600079FAE07F20F00100E0770020E6E70000EC
:107D70009F90000874696D657220213D2052545F08
:107D80004E554C4C0000000072745F6F626A656370
:107D9000745F6765745F74797065282674696D65B2
:107DA000722D3E706172656E7429203D3D205254E3
:107DB0005F4F626A6563745F436C6173735F54699C
:107DC0006D657200180100202DE9FF4F89B08046D3
:107DD00044460A984044461E464504D24FF0FF36BA
:107DE000A6EB08000A906FE10B980078252806D0D2
:107DF000B44202D80B9800782070641C61E1002521
:107E000026E00B98401C0B900B9800782D2802D18F
:107E100045F010051CE00B9800782B2802D145F0A6
:107E2000040515E00B980078202802D145F00805DC
:107E30000EE00B980078232802D145F0200507E0DA
:107E40000B980078302802D145F0010500E000E0F1
:107E5000D7E700BF4FF0FF370B98007830380A287B
:107E600004D20BA800F01CFA07460EE00B9800782D
:107E70002A280AD10B98401C0B900C9880C80C90B3
:107E8000002F02DA7F4245F010054FF0FF390B98C2
:107E900000782E281CD10B98401C0B900B98007872
:107EA00030380A2804D20BA800F0FAF981460AE01B
:107EB0000B9800782A2806D10B98401C0B900C9840
:107EC00050F8049B0C90B9F1000F01DA4FF0000953
:107ED000002004900B980078682803D00B98007855
:107EE0006C2805D10B98007804900B98401C0B90DF
:107EF0000A2005900B9800786F2875D00CDC632859
:107F000013D004DC252870D058286FD18DE0642868
:107F10006DD06928F9D18FE070286AD0732825D0F8
:107F2000752878D07828F0D182E005F0100040B9AB
:107F300004E0B44201D820202070641C781E071E83
:107F4000F7DC0C9810F8041B0C90C8B20790B442F0
:107F500001D807982070641C04E0B44201D82020A6
:107F60002070641C781E071EF7DCAAE00C980068DD
:107F700006900C98001D0C90069808B95AA006901F
:107F80000698FEF721FF8346B9F1000F02DDCB45CD
:107F900000DDCB4605F0100048B904E0B44201D83A
:107FA00020202070641C38467F1E5845F6DC0020D7
:107FB00008900BE0B44202D8069800782070641C48
:107FC0000698401C06900898401C08900898584550
:107FD000F0DB04E0B44201D820202070641C384655
:107FE0007F1E5845F6DC6CE01CE015E028E022E03E
:107FF000FFE7781C10B9082745F00105CDE90079A5
:1080000002950C9804C8102331460C902046FCF7CA
:108010000DF8044655E012E0B44201D82520207046
:10802000641C4EE0082005901DE045F0400500BFAF
:108030001020059017E000BF45F0020500BF12E0D8
:10804000B44201D825202070641C0B98007830B110
:10805000B44202D80B9800782070641C02E00B98A0
:10806000401E0B902DE000BF04986C2807D10C989F
:1080700050F804AB0C9005F00200B8B116E004987B
:1080800068280BD10C9830F8041B1FFA81FA0C9069
:1080900005F0020050B10FFA8AFA07E00C9850F888
:1080A00004AB0C9005F0020000B100BFCDE90079EF
:1080B0000295524631462046059BFBF7B7FF044622
:1080C00000BF0B98401C0B900B98007800287FF4A1
:1080D0008BAEB44201D8207001E000203070A4EBD8
:1080E00008000DB0BDE8F08F284E554C4C2900001B
:1080F0000020704700207047002070470020704724
:1081000010B5F8F7A3F8FDF733F8FEF7ABFDFEF76F
:108110009BFFFEF73BFFFEF779FFFCF74DF8FEF7FC
:10812000A1FFFFF71BF9FEF759FF002010BD00006B
:1081300070B5044609A0FDF7C3FBFBF745FE012817
:1081400002D12046FBF750FDFAF772FF05462246A2
:10815000294603A0FDF7B4FB70BD00000A00000033
:10816000257325730000000070B5044606A0FDF7D6
:10817000A7FBFAF75DFF054604F5E572294604A062
:10818000FDF79EFB002070BD1B5B324B0D00000015
:10819000257325730000000070B5044694F81A0298
:1081A000002862D0208F052833DB502204F5E571CA
:1081B00004F5BD70F8F7C4F8002856D000250EE08D
:1081C0006A1C02EB820304F13A0202EB031105EB95
:1081D000850302EB03105022F8F778F96D1C042D8B
:1081E000EEDB05EB850204F13A0101EB02105021B0
:1081F000F8F7E3F994F81A2205EB850304F13A0144
:1082000001EB031004F5E571F8F760F9052020870C
:108210002BE0208F68B1218F491E01EB810204F110
:108220003A0101EB0210502204F5E571F8F788F8E5
:10823000D8B1208FE086218F01EB810204F13A0151
:1082400001EB02105021F8F7B8F994F81A22218FA7
:1082500001EB810304F13A0101EB031004F5E57130
:10826000F8F734F9208F401C2087208FE08670BDFE
:1082700070B5044625680CE0A5F12806314606A035
:10828000FDF71EFB2868A04202D004A0FDF718FBF2
:108290002D68A542F0D170BD257300002F000000AD
:1082A0000146002009E00B685A1C0A601A7800EBAE
:1082B000800302EB4302A2F130000A681278303AE0
:1082C0000A2AF0D37047000070B506460D4626B95D
:1082D0004922314931A0FBF797FF25B94A222E499F
:1082E00033A0FBF791FF346D24B94C222A4934A006
:1082F000FBF78AFF206C40682060286860600021DE
:10830000A1610C2161610021E161287900F00F0079
:10831000082802D0092807D102E00021A16006E068
:108320004FF48051A16002E00021A16000BF00BFB6
:108330002879C0F3011010B1012807D102E0002113
:10834000E16006E04FF40051E16002E00021E160ED
:1083500000BF00BF2879C0F3811020B1012805D0EB
:1083600002280BD106E0002121610AE04FF4C06130
:10837000216106E04FF48061216102E0002121616A
:1083800000BF00BF2046F9F765FA10B14FF0FF308B
:1083900070BD0020FCE700006C89000873657269FD
:1083A000616C20213D2052545F4E554C4C00000022
:1083B00063666720213D2052545F4E554C4C0000AF
:1083C0007561727420213D2052545F4E554C4C0013
:1083D0002DE9F04105460E461746B84625B98A22D2
:1083E000214922A0FBF710FF2C6D24B98C221E49D5
:1083F00023A0FBF709FF032E2BD0102E14D0112E33
:108400002ED1216C91F9080000F01F02012191404A
:108410001F4A430942F8231000BF2068C06820F0BB
:1084200020002168C8601BE0216C91F9080000F071
:108430001F02012191404209920002F1E022C2F89C
:10844000001100BF2068C06840F020002168C860AB
:1084500006E0B8F5007F02D1284600F01BF800BF07
:1084600000BF0020BDE8F0817C8900087365726957
:10847000616C20213D2052545F4E554C4C00000051
:108480007561727420213D2052545F4E554C4C0052
:1084900080E100E070B505462DB940F2AB123C49D1
:1084A0003CA0FBF7B1FE2C6D2CB940F2AD1238495F
:1084B0003DA0FBF7A9FE00203F494969226CD26824
:1084C000526811433C4A516111464969226CD26895
:1084D000526801EA020000BF04F144006063A46630
:1084E00000BF206CC068006860640021A164E16482
:1084F0008021216500216165A1652021E165C90117
:10850000216604F14400F8F735F928B140F2D7129A
:108510001F492AA0FBF778FE04F14400F8F738FB66
:1085200028B14FF4EE721A4924A0FBF76DFE2E6EAF
:10853000E86DC0F38F2220463168F9F711FA28B1AF
:1085400040F2E51212491DA0FBF75EFE2068C068EC
:1085500040F010002168C860216CC96891F90800DA
:1085600000221146F8F78EFD216CC96891F90800C8
:10857000F8F77BFD216C91F9080000220121F8F742
:1085800081FD216C91F90800F8F76FFD70BD0000C6
:10859000A989000873657269616C20213D205254DD
:1085A0005F4E554C4C0000007561727420213D20D7
:1085B00052545F4E554C4C000010024030000000F9
:1085C00070B5054625B9BF220B490CA0FBF71CFE70
:1085D0002C6D24B9C12208490DA0FBF715FE4FF000
:1085E000FF3620680068C0F3401010B12068406872
:1085F000C6B2304670BD0000958900087365726987
:10860000616C20213D2052545F4E554C4C000000BF
:108610007561727420213D2052545F4E554C4C00C0
:1086200070B505460E4625B9AE220A490AA0FBF7E9
:10863000EBFD2C6D6FF040002168086020684660FB
:1086400000BF20680068C0F380100028F9D0012026
:1086500070BD00008A89000873657269616C202111
:108660003D2052545F4E554C4C0000000120034900
:1086700081F88C0002480349C86070477C010020E3
:10868000180000200800002010B503461A4601E03B
:10869000521C491C107828B1087818B110780C7851
:1086A000A042F5D0D01A10BD2DE9F843054625B9F2
:1086B000E4225C495CA0FBF7A7FD2C6D24B9E722FE
:1086C00058495EA0FBF7A0FD20680068C0F3401089
:1086D00048B12068C06800F0200020B10121284680
:1086E000FCF794FE9CE094F88C0060B3206800686E
:1086F000C0F3001038B32068C06800F0100010B359
:10870000F7F7A4FD8046E86DC0F38F20616C4968DF
:10871000461A88200059371A882006514046F7F734
:1087200099FD2FB1032040EA07212846FCF76EFE91
:1087300000BF00200090206800680090206840681A
:10874000009000BF6CE020680068C0F3C00050B12A
:1087500000BF0020009020680068009020684068FA
:10876000009000BF00BF20680068C0F3800050B1D7
:1087700000BF0020009020680068009020684068DA
:10878000009000BF00BF20680068C0F3400050B1F7
:1087900000BF0020009020680068009020684068BA
:1087A000009000BF00BF2068006800F0010050B1D9
:1087B00000BF00200090206800680090206840689A
:1087C000009000BF00BF20680068C0F3002018B10F
:1087D0006FF480702168086020680068C0F3402052
:1087E00018B16FF400702168086020680068C0F359
:1087F000C01018B16FF08000216808602068006820
:10880000C0F3801018B16FF0400021680860206844
:108810000068C0F3401018B16FF0200021680860B4
:10882000BDE8F883A089000873657269616C202136
:108830003D2052545F4E554C4C00000075617274DF
:1088400020213D2052545F4E554C4C0010B51EA0C7
:10885000FDF736F82048018820A0FDF731F81E48C2
:10886000008800F0010010B122A0FDF729F81A4895
:10887000008800F0020010B121A0FDF721F8164891
:10888000008800F0040010B120A0FDF719F812488C
:10889000008800F0080010B11EA0FDF711F80E4886
:1088A000008800F4807010B11CA0FDF709F80A4898
:1088B000008800F4007010B11BA0FDF701F805A0BE
:1088C000FCF7FEFF10BD00007573616765206661EF
:1088D000756C743A0A0000002AED00E05343425FD1
:1088E000434653525F554653523A307825303258FA
:1088F00020000000554E444546494E535452200036
:10890000494E56535441544520000000494E56509C
:10891000432000004E4F435020000000554E414C74
:1089200049474E454420000044495642595A455251
:108930004F20000010B5FEF795F9002010BD000093
:1089400000000000000001020304060708090000FF
:108950000000010203040000C9820008D18300085E
:1089600021860008C18500080000000073746D3383
:10897000325F636F6E6669677572650073746D331D
:10898000325F636F6E74726F6C0073746D33325F3D
:10899000707574630073746D33325F676574630060
:1089A000756172745F6973720073746D33325F64E2
:1089B0006D615F636F6E6669670048414C5F55414A
:1089C00052545F4572726F7243616C6C6261636B8B
:1089D0000048414C5F554152545F527843706C746B
:1089E00043616C6C6261636B0072745F68775F7582
:1089F000736172745F696E697400000000C20100E7
:108A00000800010072745F6170706C696361746961
:108A10006F6E5F696E69740072745F646576696316
:108A2000655F756E72656769737465720072745FF5
:108A30006465766963655F66696E640072745F641D
:108A400065766963655F64657374726F79007274CB
:108A50005F6465766963655F696E69740072745FEF
:108A60006465766963655F6F70656E0072745F64DC
:108A700065766963655F636C6F73650072745F64CC
:108A800065766963655F726561640072745F6465D1
:108A9000766963655F77726974650072745F646597
:108AA000766963655F636F6E74726F6C0072745F7A
:108AB0006465766963655F7365745F72785F696E1C
:108AC0006469636174650072745F64657669636587
:108AD0005F7365745F74785F636F6D706C657465E8
:108AE0000072745F7468726561645F69646C655F6D
:108AF0006578637574650072745F73656D5F696E28
:108B000069740072745F73656D5F64657461636836
:108B10000072745F73656D5F637265617465007286
:108B2000745F73656D5F64656C6574650072745F16
:108B300073656D5F74616B650072745F73656D5F03
:108B400072656C656173650072745F73656D5F63F8
:108B50006F6E74726F6C0072745F6D757465785FA0
:108B6000696E69740072745F6D757465785F6465B1
:108B7000746163680072745F6D757465785F6372A9
:108B8000656174650072745F6D757465785F6465A6
:108B90006C6574650072745F6D757465785F74617F
:108BA0006B650072745F6D757465785F72656C6576
:108BB0006173650072745F6D757465785F636F6E65
:108BC00074726F6C0072745F6576656E745F696E47
:108BD00069740072745F6576656E745F6465746154
:108BE00063680072745F6576656E745F6372656159
:108BF00074650072745F6576656E745F64656C653C
:108C000074650072745F6576656E745F73656E641B
:108C10000072745F6576656E745F7265637600726C
:108C2000745F6576656E745F636F6E74726F6C00EF
:108C300072745F6D625F696E69740072745F6D62F9
:108C40005F6465746163680072745F6D625F637214
:108C5000656174650072745F6D625F64656C6574F4
:108C6000650072745F6D625F73656E645F776169E2
:108C7000740072745F6D625F726563760072745F18
:108C80006D625F636F6E74726F6C0072745F6D7192
:108C90005F696E69740072745F6D715F64657461A1
:108CA00063680072745F6D715F6372656174650003
:108CB00072745F6D715F64656C6574650072745F7A
:108CC0006D715F73656E640072745F6D715F757254
:108CD00067656E740072745F6D715F7265637600B4
:108CE00072745F6D715F636F6E74726F6C00000001
:108CF0000100020001000300010002000100040065
:108D00000100020001000300010002000100050053
:108D10000100020001000300010002000100040044
:108D20000100020001000300010002000100060032
:108D30000100020001000300010002000100040024
:108D40000100020001000300010002000100050013
:108D50000100020001000300010002000100040004
:108D600001000200010003000100020001000700F1
:108D700001000200010003000100020001000400E4
:108D800001000200010003000100020001000500D3
:108D900001000200010003000100020001000400C4
:108DA00001000200010003000100020001000600B2
:108DB00001000200010003000100020001000400A4
:108DC0000100020001000300010002000100050093
:108DD0000100020001000300010002000100040084
:108DE0000100020001000300010002000100303117
:108DF0003233343536373839616263646566003042
:108E000031323334353637383941424344454600F0
:108E10006C6973745F6D656D00706C75675F686F0A
:108E20006C65730072745F73797374656D5F6865E8
:108E300061705F696E69740072745F6D616C6C6FF4
:108E4000630072745F7265616C6C6F630072745F53
:108E5000667265650072745F6D705F696E6974003B
:108E600072745F6D705F6465746163680072745FD3
:108E70006D705F6372656174650072745F6D705FC1
:108E800064656C6574650072745F6D705F616C6CB5
:108E90006F630072745F6F626A6563745F696E69A5
:108EA000740072745F6F626A6563745F6465746195
:108EB00063680072745F6F626A6563745F616C6C93
:108EC0006F636174650072745F6F626A6563745F7B
:108ED00064656C6574650072745F6F626A65637463
:108EE0005F69735F73797374656D6F626A656374CC
:108EF0000072745F6F626A6563745F6765745F7444
:108F00007970650072745F6F626A6563745F666929
:108F10006E64005F72745F7363686564756C65721C
:108F20005F737461636B5F636865636B0072745F2A
:108F30007363686564756C655F696E736572745F91
:108F40007468726561640072745F736368656475E8
:108F50006C655F72656D6F76655F7468726561647C
:108F60000072745F7369676E616C5F77616974002A
:108F700072745F7468726561645F616C6C6F635F6B
:108F80007369670072745F7468726561645F6B69AE
:108F90006C6C0072745F73797374656D5F7369676D
:108FA0006E616C5F696E6974005F72745F74687281
:108FB0006561645F696E69740072745F746872657C
:108FC00061645F696E69740072745F746872656170
:108FD000645F737461727475700072745F74687228
:108FE0006561645F6465746163680072745F74686E
:108FF000726561645F64656C6574650072745F744A
:1090000068726561645F736C6565700072745F742B
:1090100068726561645F636F6E74726F6C00727406
:109020005F7468726561645F73757370656E640008
:1090300072745F7468726561645F726573756D6583
:109040000072745F7468726561645F74696D656FE6
:1090500075740072745F7468726561645F66696ECE
:10906000640072745F74696D65725F696E69740023
:1090700072745F74696D65725F64657461636800C2
:1090800072745F74696D65725F64656C65746500A8
:1090900072745F74696D65725F737461727400726B
:1090A000745F74696D65725F73746F700072745F62
:1090B00074696D65725F636F6E74726F6C0000002F
:1090C00068656C6C6F0076657273696F6E005F5FC8
:1090D000636D645F76657273696F6E006C6973743B
:1090E0005F746872656164005F5F636D645F6C6983
:1090F00073745F746872656164006C6973745F7324
:10910000656D005F5F636D645F6C6973745F736549
:109110006D006C6973745F6576656E74005F5F6384
:109120006D645F6C6973745F6576656E74006C69FD
:1091300073745F6D75746578005F5F636D645F6CF9
:109140006973745F6D75746578006C6973745F6DB5
:1091500061696C626F78005F5F636D645F6C6973F7
:10916000745F6D61696C626F78006C6973745F6DB8
:1091700073677175657565005F5F636D645F6C69CA
:1091800073745F6D73677175657565006C69737471
:109190005F6D656D706F6F6C005F5F636D645F6CBA
:1091A0006973745F6D656D706F6F6C006C6973745B
:1091B0005F74696D6572005F5F636D645F6C697396
:1091C000745F74696D6572006C6973745F64657651
:1091D000696365005F5F636D645F6C6973745F648E
:1091E0006576696365006C697374000028970008F0
:1091F000E4960008789600088C960008A49600086B
:1092000074960008C0960008B0960008649700089D
:10921000D0960008809700086C9700089896000880
:10922000749700080497000854970008F496000803
:10923000189700083C9700085C9700085F5F636D13
:10924000645F68656C70005F6D73685F6578656307
:109250005F636D64005F5F636D645F7073005F5F89
:10926000636D645F74696D65005F5F636D645F6605
:109270007265650066696E73685F6765745F7072BA
:109280006F6D70745F6D6F64650066696E73685FA3
:109290007365745F70726F6D70745F6D6F6465007D
:1092A00066696E73685F676574636861720066699A
:1092B0006E73685F72785F696E640066696E73686A
:1092C0005F7365745F6465766963650066696E7374
:1092D000685F6765745F6465766963650066696E7B
:1092E00073685F7365745F6563686F0066696E734A
:1092F000685F6765745F6563686F0072745F636F52
:109300006D706C6574696F6E5F696E6974007274FC
:109310005F636F6D706C6574696F6E5F77616974A0
:109320000072745F636F6D706C6574696F6E5F64FB
:109330006F6E650072745F646174615F71756575ED
:10934000655F696E69740072745F646174615F71F6
:10935000756575655F707573680072745F646174BC
:10936000615F71756575655F706F700072745F64C1
:109370006174615F71756575655F7065616B005FD4
:1093800073657269616C5F706F6C6C5F7278005F9F
:1093900073657269616C5F706F6C6C5F7478005F8D
:1093A00073657269616C5F696E745F7278005F7378
:1093B000657269616C5F696E745F7478005F736574
:1093C0007269616C5F6669666F5F63616C635F722F
:1093D00065637665645F6C656E0072745F646D6171
:1093E0005F726563765F7570646174655F676574ED
:1093F0005F696E6465780072745F646D615F726549
:1094000063765F7570646174655F7075745F696EB3
:10941000646578005F73657269616C5F646D615F3C
:1094200072780072745F73657269616C5F696E69EE
:10943000740072745F73657269616C5F6F70656EE2
:109440000072745F73657269616C5F636C6F7365E2
:109450000072745F73657269616C5F72656164004C
:1094600072745F73657269616C5F777269746500AD
:1094700072745F73657269616C5F636F6E74726F33
:109480006C0072745F68775F73657269616C5F729C
:10949000656769737465720072745F68775F73657E
:1094A0007269616C5F6973720000000075617274AB
:1094B0003100000072745F6F626A6563745F676594
:1094C000745F74797065282673656D2D3E706172C6
:1094D000656E742E706172656E7429203D3D205258
:1094E000545F4F626A6563745F436C6173735F536B
:1094F000656D6170686F7265000000002872745FAE
:1095000075696E7433325F7429282872745F7569C7
:109510006E74385F74202A296D656D202B205349A5
:109520005A454F465F5354525543545F4D454D295C
:1095300020252052545F414C49474E5F53495A45BC
:10954000203D3D20300000002872745F75696E7404
:10955000385F74202A29726D656D203E3D20287287
:10956000745F75696E74385F74202A29686561704C
:109570005F707472202626202872745F75696E747D
:10958000385F74202A29726D656D203C2028727422
:109590005F75696E74385F74202A29686561705F31
:1095A000656E64002872745F75696E7433325F741F
:1095B000296D656D202B2053495A454F465F535402
:1095C000525543545F4D454D202B2073697A6520D9
:1095D0003C3D202872745F75696E7433325F742964
:1095E000686561705F656E640000000072745F6F93
:1095F000626A6563745F6765745F74797065282853
:1096000072745F6F626A6563745F742974687265EF
:10961000616429203D3D2052545F4F626A65637446
:109620005F436C6173735F5468726561640000002E
:10963000252D2A2E73207072692020737461747531
:10964000732020202020207370202020202073747D
:1096500061636B2073697A65206D6178207573652D
:1096600064206C656674207469636B202065727277
:109670006F720A00525443004E6574776F726B200C
:10968000496E746572666163650000004D54442044
:1096900044657669636500005350492044657669E6
:1096A0006365000043414E204465766963650000B0
:1096B000477261706869632044657669636500007C
:1096C000536F756E64204465766963650000000021
:1096D00055534220536C6176652044657669636515
:1096E00000000000426C6F636B204465766963651F
:1096F00000000000506F7274616C204465766963ED
:1097000065000000504D2050736575646F204465FE
:10971000766963650000000054696D6572204465D8
:109720007669636500000000436861726163746577
:109730007220446576696365000000004D697363BB
:10974000656C6C616E656F757320446576696365E1
:10975000000000005069706500000000556E6B6EDF
:109760006F776E0049324320427573005350492091
:10977000427573005344494F204275730000000046
:1097800055534220486F73742042757300000000E7
:10979000FD800008F5800008F1800008753200089F
:1097A000F9800008108E00088D390008C09000086C
:1097B00091380008C690000835890008CE9000084E
:1097C00035890008DC9000084D3A0008E890000850
:1097D0004D3A0008FA9000083B3A0008039100084F
:1097E0003B3A000812910008673900081D910008F3
:1097F000673900082E910008293A000839910008BD
:10980000293A00084A910008793900085791000860
:10981000793900086A910008173A00087891000821
:10982000173A00088C910008053A00089991000841
:10983000053A0008AC9100085F3A0008B7910008AB
:109840005F3A0008C891000855390008D491000813
:1098500055390008E6910008FD3800083C920008E0
:10986000513D0008559200081B3000085E92000828
:1098700029300008699200080D3000089C98000803
:10988000000000207C0100006C0100080499000821
:109890007C0100201C0E0000C80100081144A24AEF
:1098A0000413AC9412087538014025125834024054
:1098B00001025B0F227C2A200432BC296C1A8C0C1A
:1098C0002904323432021A9C0C290432382A03A4A7
:1098D000190C2904292029B51938293C3320443290
:1098E000051ACC0C2904324832071ADC0C29043240
:1098F0004C32081AEC0C2904325432091AFC0C2997
:0499000004027740A6
:0400000508000131BD
:00000001FF
